:100000000C9434000C9448000C9446000C94460068
:100010000C9446000C9446000C9446000C94460048
:100020000C9446000C9446000C9446000C94460038
:100030000C9446000C9446000C9446000C94460028
:100040000C9446000C9446000C9446000C94460018
:100050000C9446000C9446000C9446000C94460008
:100060000C9446000C94460011241FBECFEFD8E03C
:10007000DEBFCDBF21E0A0E0B1E001C01D92A43001
:10008000B207E1F70E946F000C94D1000C940000BD
:100090001F920F920FB60F9211242F938F939F935D
:1000A0002FEF80E792E0215080409040E1F700C0C0
:1000B000000088E494EF90938500809384004A992F
:1000C00006C081E090E090930301809302019F912C
:1000D0008F912F910F900FBE0F901F901895F8944D
:1000E0008FEF84B98AB1806C8AB952985A9AE89A8B
:1000F000809169008260809369009FB7F894A89509
:100100008091600088618093600083E0809360004C
:100110009FBF789421E030E080910201909103012B
:10012000892B39F110920301109202018091000194
:1001300090910101863091055CF595B1A90101C04E
:10014000440F8A95EAF7892F842B85B980910001A5
:10015000909101010196909301018093000108970D
:1001600044F015B88BB18F738BB9109201011092C6
:1001700000018AE090E04FEF51EE64E041505040C2
:100180006040E1F700C00000A8950197A1F7C4CF37
:100190008630910511F45E9AD9CF0797B9F65F9A28
:0601A000D5CFF894FFCF5B
:00000001FF
