:100000000C945D000C9485000C9485000C94850084
:100010000C9485000C9485000C9485000C9485004C
:100020000C9485000C9485000C9485000C9485003C
:100030000C9485000C9485000C9485000C9485002C
:100040000C94BA020C9485000C9485000C948500E5
:100050000C9485000C9485000C9485000C9485000C
:100060000C9485000C94850000000008000201003B
:100070000003040700000000000000000000000072
:10008000250028002B0000000000240027002A0083
:10009000040404040404040402020202020203032E
:1000A0000303030301020408102040800102040836
:1000B0001020010204081020030411241FBECFEFFA
:1000C000D8E0DEBFCDBF11E0A0E0B1E0E2E5F8E0AE
:1000D00002C005900D92AE35B107D9F721E0AEE52B
:1000E000B1E001C01D92AF37B207E1F710E0CDE5F6
:1000F000D0E004C02197FE010E942104CC35D10735
:10010000C9F70E9404030C9427040C94000090E0AB
:10011000FC01EC55FF4F249180579F4FFC018491C7
:10012000882399F090E0880F991FFC01EA57FF4F50
:10013000A591B491FC01E458FF4F859194918FB73C
:10014000F894EC91E22BEC938FBF089590E0FC01C2
:10015000E859FF4F2491FC01EC55FF4F3491FC010D
:10016000E057FF4FE491EE23C9F0222339F023300A
:1001700001F1A8F4213019F1223029F1F0E0EE0F5D
:10018000FF1FE458FF4FA591B4918FB7F894EC91FD
:10019000611126C030953E233C938FBF08952730D0
:1001A000A9F02830C9F0243049F7809180008F7D74
:1001B00003C0809180008F7780938000DFCF84B56B
:1001C0008F7784BDDBCF84B58F7DFBCF8091B0006E
:1001D0008F778093B000D2CF8091B0008F7DF9CF20
:1001E0003E2BDACF3FB7F894809163019091640180
:1001F000A0916501B091660126B5A89B05C02F3F6F
:1002000019F00196A11DB11D3FBFBA2FA92F982F3C
:100210008827BC01CD01620F711D811D911D42E037
:10022000660F771F881F991F4A95D1F70895AF92DF
:10023000BF92CF92DF92EF92FF920F931F93CF93D3
:10024000DF936C017B018B01040F151FEB015E0135
:10025000AE18BF08C017D10759F06991D601ED91CA
:10026000FC910190F081E02DC6010995892B79F769
:10027000C501DF91CF911F910F91FF90EF90DF901B
:10028000CF90BF90AF900895089590E080E00895DA
:10029000CF93DF93EC0160E08E810E94A60061E0C5
:1002A0008E810E94A60060E08E810E94A6008BE8ED
:1002B00091E00197F1F7DF91CF910895CF92DF920E
:1002C000EF92FF920F931F93CF93DF936C017C010A
:1002D00087E0E80EF11CD0E0C0E0062F10E0B80186
:1002E0000C2E02C0759567950A94E2F76170F701CC
:1002F00081917F010E94A6002196C430D10579F733
:10030000C601DF91CF911F910F91FF90EF90DF9089
:10031000CF900C944801CF92DF92EF92FF920F930F
:100320001F93CF93DF93EC01F62E642F8C810E94F4
:10033000A6008D818F3F19F060E00E94A6000F2D6E
:1003400010E08F8584FF25C06E0187E0C80ED11CA8
:10035000F12CE12CB8010E2C02C0759567950A941A
:10036000E2F76170F60181916F010E94A600FFEF34
:10037000EF1AFF0A88E0E816F10461F7CE01DF9179
:10038000CF911F910F91FF90EF90DF90CF900C9441
:100390004801B80184E0759567958A95E1F7CE012B
:1003A0000E945E016F2DCE01DF91CF911F910F91C1
:1003B000FF90EF90DF90CF900C945E0140E0682FAB
:1003C00087E691E00C948B0181E00E94DE018BE3D3
:1003D0009FE10197F1F70895CF93DF93823029F4DD
:1003E0009091760198609093760180937A011092B3
:1003F0007B0180E480937C0180E180937D0180E536
:1004000080937E0180916B010E94870080916C0136
:100410008F3F11F00E94870080916D010E9487003C
:10042000C7E6D1E09E01275631408091760184FDD8
:100430000AC084E090E02196281739073CF48E81A9
:100440000E948700EFCF88E090E0F5CF8BE39DE03E
:100450000197F1F760E080916B010E94A60060E0D7
:1004600080916D010E94A60080916C018F3F19F070
:1004700060E00E94A6008091760184FD34C063E0B4
:1004800087E691E00E945E01CBE4D6E4CE010197BD
:10049000F1F763E087E691E00E945E012197F1F7B2
:1004A00063E087E691E00E945E0183E592E00197B8
:1004B000F1F762E087E691E00E945E0180917601AB
:1004C00080620E94DE0184E0809377018CE00E94CC
:1004D000DE010E94E40182E08093780186E0DF91F2
:1004E000CF910C94DE0180620E94DE018BE496E4E1
:1004F0000197F1F78091760180620E94DE0183E529
:1005000092E00197F1F78091760180620E94DE010E
:10051000D5CF90917A01691710F06FEF690FE62F30
:10052000F0E0E959FE4F9489890F80680C94DE0150
:1005300041E00E948B0181E090E008950F931F93AA
:10054000CF93DF938B0128E0829FC0011124806448
:100550000E94DE01E801085F1F4F699187E691E084
:100560000E949802C017D107C1F7DF91CF911F9168
:100570000F9108951F920F920FB60F9211242F938F
:100580003F938F939F93AF93BF9380915F0190911F
:100590006001A0916101B091620130915E0123E0A0
:1005A000230F2D3758F50196A11DB11D20935E0133
:1005B00080935F0190936001A0936101B093620109
:1005C0008091630190916401A0916501B0916601F1
:1005D0000196A11DB11D8093630190936401A093C6
:1005E0006501B0936601BF91AF919F918F913F914B
:1005F0002F910F900FBE0F901F90189526E8230F94
:100600000296A11DB11DD2CF789484B5826084BDBD
:1006100084B5816084BD85B5826085BD85B5816006
:1006200085BD80916E00816080936E001092810084
:10063000809181008260809381008091810081603F
:100640008093810080918000816080938000809100
:10065000B10084608093B1008091B000816080938C
:10066000B00080917A00846080937A0080917A0053
:10067000826080937A0080917A00816080937A0012
:1006800080917A00806880937A001092C10082E0A5
:100690000E94EC0168E371E080E00E949E0260E34A
:1006A00071E081E00E949E0268E271E082E00E94B7
:1006B0009E0260E271E083E00E949E0268E171E0C8
:1006C00084E00E949E0260E171E085E00E949E024B
:1006D00068E071E086E00E949E0260E071E087E0E1
:1006E0000E949E020E94E401C0E0D0E00E94E4016A
:1006F00060E080E00E94890260E087E691E00E946D
:10070000980261E080E00E94890261E087E691E062
:100710000E94980260E081E00E94890262E087E620
:1007200091E00E94980261E081E00E94890263E00A
:1007300087E691E00E94980260E082E00E948902D0
:1007400064E087E691E00E94980261E082E00E9406
:10075000890265E087E691E00E94980260E083E00C
:100760000E94890266E087E691E00E94980261E0BB
:1007700083E00E94890267E087E691E00E94980288
:1007800060E088E00E94890246E050E06CE471E09D
:1007900087E691E00E94170161E086E00E948902ED
:1007A0004AE050E063E571E087E691E00E941701BE
:1007B0000E94F2004B015C0180EDC82E87E0D82E2C
:1007C000E12CF12C0E94F200681979098A099B0931
:1007D000683E734081059105A8F321E0C21AD10853
:1007E000E108F10888EE880E83E0981EA11CB11C78
:1007F000C114D104E104F10429F7209709F476CF5C
:100800000E94000073CFE7E6F1E01382128284E4D5
:1008100091E09183808388E084838FEF858389E0F2
:1008200086838AE087838BE080878CE081878DE0F8
:1008300082871386148615861686178681E00C94A7
:10084000EC01EE0FFF1F0590F491E02D0994F89450
:02085000FFCFD8
:100852001010040515150E041E1F1F101E000000A7
:100862001F1E1C18080C0000070D0F0F0F0F1F1F73
:100872001F1F1F1F0F0602030000000000000011CF
:10088200030100000000000000000000040607074A
:10089200000000009802170145014401437573747A
:0E08A2006F6D0043686172616374657273006C
:00000001FF
