:020000040000FA
:100000000C9434000C9451000C9451000C94510049
:100010000C9451000C9451000C9451000C9451001C
:100020000C9451000C9451000C9451000C9451000C
:100030000C9451000C9451000C9451000C945100FC
:100040000C9451000C9451000C9451000C945100EC
:100050000C9451000C9451000C9451000C945100DC
:100060000C9451000C94510011241FBECFEFD8E026
:10007000DEBFCDBF11E0A0E0B1E0ECE2F3E002C0F2
:1000800005900D92A231B107D9F721E0A2E1B1E0CC
:1000900001C01D92AA31B207E1F70E9470000C94D2
:1000A00094010C94000080917C00807F80937C0000
:1000B00080917C00856080937C0080917A008064D0
:1000C00080937A0080917A0084FFFCCF80917A003F
:1000D000806180937A0080917800909179000895F2
:1000E00017B88FEF8AB98FE38BB985E480937C00D2
:1000F00087E880937A00109219011092180189E024
:10010000282E312C98E0492E512C27E0622E712C9C
:100110003BE0832E912CC6E0D0E005E010E044E007
:10012000E42EF12C5AE0C52ED12C63E0A62EB12C82
:1001300010921701109216011092150110921401DD
:100140000E94530090931301809312012091140197
:1001500030911501AC01421B530B9A012D5E3F4FAC
:100160002732310568F54F975CF180911601909127
:100170001701019690931701809316018FED9EE26F
:100180000197F1F700C000008091120190911301D6
:10019000909315018093140120911601309117015D
:1001A000243131056CF29C012E5131092631310583
:1001B00060F481E090E0909319018093180118C0D9
:1001C0001092170110921601D9CF9C0127543109C2
:1001D0002C30310518F482E090E0EDCF9C012257DD
:1001E000310929303105B0F4B0921901A0921801FB
:1001F0000E94530090931301809312014F97C4F70C
:10020000E09118010E2E000CFF0BE050FF4F808193
:100210008BB98ECF9C012F5831092B30310528F432
:10022000D0921901C0921801E3CF9C0128563109E0
:100230002730310528F4F0921901E0921801D8CF47
:100240009C01285B31092631310528F410931901EE
:1002500000931801CDCF9C01255F31092032310573
:1002600028F4D0931901C0931801C2CF9C012754E0
:1002700031402B30310528F49092190180921801F9
:10028000B7CF9C01285A31092630310528F47092E5
:10029000190160921801ACCF9C012E5131402B30D6
:1002A000310528F45092190140921801A1CF9C0108
:1002B000205731402531310528F430921901209220
:1002C000180196CF9C01225C31404CE050E02A326C
:1002D0003105E0F09C01255F32402932310518F4E8
:1002E0008EE090E068CF9C012F56334026313105D7
:1002F00028F410921901109218017ACF9C01285904
:1003000033402231310538F44FE050E05093190169
:10031000409318016DCF8D5A93408335910508F0B5
:1003200067CF8DE090E047CFF894FFCF3F065B4F5B
:0E033000666D7D077F6F777C395E7971000006
:107E0000112484B714BE81FFF0D085E080938100F7
:107E100082E08093C00088E18093C10086E0809377
:107E2000C20080E18093C4008EE0C9D0259A86E02C
:107E300020E33CEF91E0309385002093840096BBD3
:107E4000B09BFECF1D9AA8958150A9F7CC24DD24C4
:107E500088248394B5E0AB2EA1E19A2EF3E0BF2EE7
:107E6000A2D0813461F49FD0082FAFD0023811F036
:107E7000013811F484E001C083E08DD089C08234E0
:107E800011F484E103C0853419F485E0A6D080C0E4
:107E9000853579F488D0E82EFF2485D0082F10E0AE
:107EA000102F00270E291F29000F111F8ED06801E7
:107EB0006FC0863521F484E090D080E0DECF843638
:107EC00009F040C070D06FD0082F6DD080E0C81688
:107ED00080E7D80618F4F601B7BEE895C0E0D1E017
:107EE00062D089930C17E1F7F0E0CF16F0E7DF06D8
:107EF00018F0F601B7BEE89568D007B600FCFDCFD4
:107F0000A601A0E0B1E02C9130E011968C91119780
:107F100090E0982F8827822B932B1296FA010C0160
:107F200087BEE89511244E5F5F4FF1E0A038BF0790
:107F300051F7F601A7BEE89507B600FCFDCF97BE46
:107F4000E89526C08437B1F42ED02DD0F82E2BD052
:107F50003CD0F601EF2C8F010F5F1F4F84911BD097
:107F6000EA94F801C1F70894C11CD11CFA94CF0C13
:107F7000D11C0EC0853739F428D08EE10CD085E9AC
:107F80000AD08FE07ACF813511F488E018D01DD067
:107F900080E101D065CF982F8091C00085FFFCCF94
:107FA0009093C60008958091C00087FFFCCF809118
:107FB000C00084FD01C0A8958091C6000895E0E648
:107FC000F0E098E1908380830895EDDF803219F02E
:107FD00088E0F5DFFFCF84E1DECF1F93182FE3DFCA
:107FE0001150E9F7F2DF1F91089580E0E8DFEE27F6
:047FF000FF270994CA
:027FFE00040479
:00000001FF
