:100000000C9461000C947E000C947E000C947E0095
:100010000C947E000C947E000C9497020C947E004D
:100020000C947E000C947E000C947E000C94DC02F8
:100030000C947E000C947E000C947E000C947E0048
:100040000C944D020C947E000C947E000C947E0067
:100050000C947E000C947E000C947E000C947E0028
:100060000C947E000C947E0000000000230026000B
:10007000290000000000240027002A0000000000E2
:10008000250028002B0004040404040404040202D4
:100090000202020203030303030301020408102007
:1000A0004080010204081020010204081020000012
:1000B0000008000201000003040700000000000027
:1000C000000011241FBECFEFD8E0DEBFCDBF11E08E
:1000D000A0E0B1E0E8ECF9E002C005900D92AE308E
:1000E000B107D9F721E0AEE0B1E001C01D92AB321B
:1000F000B207E1F70E9447030C94E2040C9400005D
:10010000833081F028F4813099F08230A9F008958D
:100110008730A9F08830C9F08430B1F48091800034
:100120008F7D03C0809180008F7780938000089539
:1001300084B58F7784BD089584B58F7DFBCF809182
:10014000B0008F778093B00008958091B0008F7DCC
:10015000F9CF1F93CF93DF93282F30E0F901E255B9
:10016000FF4F8491F901E656FF4FD491F901EA5708
:10017000FF4FC491CC23A9F0162F81110E9480005B
:10018000EC2FF0E0EE0FFF1FE458FF4FA591B49164
:100190008FB7F894EC91111108C0D095DE23DC9351
:1001A0008FBFDF91CF911F910895DE2BF8CFCF93B2
:1001B000DF9390E0FC01E656FF4F24918A579F4F52
:1001C000FC0184918823D1F090E0880F991FFC01F5
:1001D000EE58FF4FA591B491FC01E458FF4FC59133
:1001E000D49161110EC09FB7F8948C91E22FE095E5
:1001F0008E238C932881E223E8839FBFDF91CF91E8
:1002000008958FB7F894EC91E22BEC938FBFF6CF63
:10021000CF93DF93D82FC8E06D2F617080E10E94EB
:10022000A900D69561E08FE00E94A90060E08FE010
:100230000E94A900C15081F7DF91CF910895CF931B
:10024000C82F60E08EE00E94A9008C2F0E94080158
:1002500061E08EE0CF910C94A900EF92FF920F9392
:100260001F93CF93DF93CDB7DEB762970FB6F894A5
:10027000DEBF0FBECDBF2AE0E3E0F1E0DE01119664
:1002800001900D922A95E1F768EE73E00E94CE048A
:10029000362F6AE070E00E94CE04562F2AE0832FAA
:1002A000622F0E94C204E1E0F0E0EC0FFD1FE80FB6
:1002B000F11D4081E1E0F0E0EC0FFD1FE90FF11DC1
:1002C0003081852F0E94C204E1E0F0E0EC0FFD1FB9
:1002D000E80FF11D2081E1E0F0E0EC0FFD1FE90FD8
:1002E000F11D80811B861C861D861E8690E4988BDE
:1002F0004E873F87298B8A8B8091180181110CC012
:1003000080911901811131C08EE58B87809119018F
:1003100081112DC084E58C877E018BE0E80EF11CF5
:1003200010ECF70101917F0184E40E941F0160E05D
:100330008EE00E94A900812F0E940801802F0E9458
:10034000080161E08EE00E94A9001E5F103D49F7A0
:1003500062960FB6F894DEBF0FBECDBFDF91CF918E
:100360001F910F91FF90EF9008958CE1CECF83E71E
:10037000D2CFCF9380E40E941F0160E08EE00E9404
:10038000A90080EC0E940801C0E180E00E94080101
:10039000C150D9F761E08EE0CF910C94A9006F9223
:1003A0007F928F929F92AF92BF92CF92DF92EF9205
:1003B000FF920F931F93CF93DF9360E08EE00E9434
:1003C000A90082E40E94080160E080E10E94D70059
:1003D000D0E0C0E0812C9EEBE92E90E0F92E2AEAD5
:1003E000C22E20E0D22E36E9A32E30E0B32E10E04C
:1003F00000E0912C61E08FE00E94A900F701849158
:10040000F6017490F5016490662009F444C08111EE
:100410000E948000E62DF0E0EE0FFF1FE859FF4F2D
:10042000A591B4918C91782231E009F430E0832FCA
:10043000002E01C0880F0A94EAF7982A60E08FE046
:100440000E94A9000F5F1F4F0830110599F6892DF2
:100450000C2E01C0880F0A94EAF7882A2196C4302E
:10046000D10509F0C4CF61E080E10E94D70061E0CE
:100470008EE00E94A900882DDF91CF911F910F91EE
:10048000FF90EF90DF90CF90BF90AF909F908F90B4
:100490007F906F90089580E0CBCF1F920F920FB6A0
:1004A0000F9211242F933F938F939F93AF93BF93FA
:1004B0008091270190912801A0912901B0912A01F2
:1004C0003091260123E0230F2D3758F50196A11D09
:1004D000B11D209326018093270190932801A093BA
:1004E0002901B0932A018091220190912301A091CA
:1004F0002401B09125010196A11DB11D8093220117
:1005000090932301A0932401B0932501BF91AF9153
:100510009F918F913F912F910F900FBE0F901F9041
:10052000189526E8230F0296A11DB11DD2CF1F9268
:100530000F920FB60F9211242F933F934F935F9317
:100540006F937F938F939F93AF93BF93EF93FF939B
:100550000E94CF01882399F080911E0190911F0184
:10056000A0912001B0912101809313019093140177
:10057000A0931501B093160181E080931701A8950F
:10058000F894A8958091600088618093600080E66F
:10059000809360007894FF91EF91BF91AF919F910C
:1005A0008F917F916F915F914F913F912F910F901C
:1005B0000FBE0F901F9018951F920F920FB60F92BB
:1005C00011242F938F939F93AF93BF9380911E011C
:1005D00090911F01A0912001B09121010196A11DD0
:1005E000B11D80931E0190931F01A0932001B09331
:1005F0002101809119018823B1F18091170188238D
:10060000F1F08091180181111AC08091010190913F
:100610000201803E9E42E9F481E0809318018091BE
:100620001E0190911F01A0912001B09121018093A2
:100630000F0190931001A0931101B0931201BF918B
:10064000AF919F918F912F910F900FBE0F901F90A0
:1006500018958091010190910201019690930201F9
:1006600080930101ECCF80911701882341F38091A1
:1006700018018111E4CF8091010190910201892B31
:1006800059F280910101909102010197E7CF78948E
:1006900084B5826084BD84B5816084BD85B5826087
:1006A00085BD85B5816085BD80916E008160809338
:1006B0006E001092810080918100826080938100A1
:1006C00080918100816080938100809180008160B1
:1006D000809380008091B10084608093B10080910C
:1006E000B00081608093B00080917A008460809334
:1006F0007A0080917A00826080937A0080917A00FB
:10070000816080937A0080917A00806880937A007B
:100710001092C10061E08EE00E94D70061E08FE09E
:100720000E94D70061E080E10E94D7008FE80E941C
:100730001F010E94B901F89410928000109281006C
:1007400010928500109284008EE390E090938900CF
:1007500080938800809181008C60809381008091DB
:100760006F00826080936F00F894A895809160007C
:1007700088618093600080E680936000789478942C
:1007800011E0C0E0D0E001E00E94CF01C0901E0166
:10079000D0901F01E0902001F090210180FF30C037
:1007A00040911A0150911B0160911C0170911D0133
:1007B00046015701841A950AA60AB70AB501A40191
:1007C000493C510561057105D8F0909119019127B7
:1007D000909319019091190130E020E0911102C02D
:1007E00020EE3EE2309302012093010110921801A5
:1007F000C0921A01D0921B01E0921C01F0921D01DF
:1008000087FF27C080911A0190911B01A0911C01C4
:10081000B0911D01A7019601281B390B4A0B5B0BF8
:10082000DA01C901893C9105A105B10590F0009359
:100830001701C0921A01D0921B01E0921C01F092A4
:100840001D01C0921301D0921401E0921501F092A3
:1008500016018091130190911401A0911501B0919E
:10086000160146015701881A990AAA0ABB0AD5013E
:10087000C40188389341A105B10558F18091170151
:10088000811127C00E94B90183B7817F846083BF33
:1008900083B7816083BFA89583B7816083BF889544
:1008A00083B78E7F83BF83B78E7F83BF2FB7F894C4
:1008B0008091270190912801A0912901B0912A01EE
:1008C0002FBF8093130190931401A0931501B0934F
:1008D000160180911801882309F445C080910F0109
:1008E00090911001A0911101B091120146015701A0
:1008F000881A990AAA0ABB0AD501C401843F91400B
:10090000A105B10560F1809100018127809300016C
:10091000C0920F01D0921001E0921101F0921201E9
:1009200080910E018F5F80930E018530C0F0109290
:1009300018010E94B9011092000183B7817F846081
:1009400083BF83B7816083BFA89583B7816083BF6E
:10095000889583B78E7F83BF83B78E7F83BF809157
:100960000001882339F080910101909102010E94D9
:100970002D0102C00E94B901209709F405CF0E9401
:10098000000002CF991B79E004C0991F961708F068
:10099000961B881F7A95C9F780950895AA1BBB1BE3
:1009A00051E107C0AA1FBB1FA617B70710F0A61B6F
:1009B000B70B881F991F5A95A9F780959095BC0190
:0809C000CD010895F894FFCF6A
:0E09C80001E02E3F065B4F666D7D077F6F00DE
:00000001FF
