:100000000C9434000C9451000C9453000C94510047
:100010000C9451000C9451000C9451000C9451001C
:100020000C9451000C9451000C9451000C9451000C
:100030000C9451000C9451000C9451000C945100FC
:100040000C9451000C9451000C9451000C945100EC
:100050000C9451000C9451000C9451000C945100DC
:100060000C9451000C94510011241FBECFEFD8E026
:10007000DEBFCDBF11E0A0E0B1E0E8E7F2E002C0F2
:1000800005900D92A031B107D9F721E0A0E1B1E0D0
:1000900001C01D92A231B207E1F70E9429010C9420
:1000A0003A010C9400001F920F920FB60F92112488
:1000B000EF92FF920F931F932F933F934F935F9372
:1000C0006F937F938F939F93AF93BF93CF93DF9360
:1000D000EF93FF938FEF8093110181E080931001E4
:1000E00020E730EB40ED50EE65E076E0E7E0F8E049
:1000F000A9E0BCE0CFE0DDE011E002E083E0F82E13
:100100009AE0E92E809110018130F1F55BB98FE31F
:100110009CE90197F1F700C0000093B19F708091B6
:1001200010019B3009F45CC0E0F5973009F443C03E
:100130008F5F8093100185302CF3E0911101E03145
:1001400050F40E2E000CFF0BE050FF4F808188B959
:1001500086FF7DC02C9A88E08BB9FF91EF91DF91EB
:10016000CF91BF91AF919F918F917F916F915F914F
:100170004F913F912F911F910F91FF90EF900F9012
:100180000FBE0F901F901895823011F44BB9BFCF5E
:10019000833011F43BB9BBCF843009F0B8CF2BB911
:1001A000B6CF9D3091F19E3019F6813009F042C0F2
:1001B000D0931101BDCF813019F4E0921101B8CF75
:1001C000823019F4F0921101B3CF833019F4009307
:1001D0001101AECF843009F0ABCF10931101A8CF3D
:1001E000813019F490931101A3CF823019F47093E8
:1001F00011019ECF833019F46093110199CF84309F
:1002000009F096CF8093110193CF813019F4B09308
:1002100011018ECF823019F4A093110189CF833060
:1002200019F4F093110184CF843009F081CFE09369
:1002300011017ECF823019F4C093110179CF833040
:1002400019F41092110174CF843061F271CF2C989F
:1002500082CF80EF8AB980E184B98FE787B988E0DF
:100260008093690092E09DBB78949FE095B98BB92B
:0802700018B8FFCFF894FFCF8E
:100278003F065B4F666D7D077F6F777C395E7971CE
:00000001FF
