:020000040000FA
:100000000C9475000C9487000C9487000C94870066
:100010000C9487000C9487000C9487000C94870044
:100020000C9487000C9487000C9487000C94870034
:100030000C9487000C9487000C9487000C94870024
:100040000C9489000C9487000C9487000C94870012
:100050000C9487000C9487000C9487000C94870004
:100060000C9487000C94870007634236B79BD8A78F
:100070001A39685618AEBAAB558C1D3CB7CC5763CD
:10008000BD6DEDFD753EF6177231BF000000803F7B
:1000900008000000BE922449123EABAAAA2ABECD97
:1000A000CCCC4C3E00000080BEABAAAAAA3E000009
:1000B0000000BF000000803F000000000008417801
:1000C000D3BB4387D1133D190E3CC3BD4282AD2B38
:1000D0003E68EC8276BED98FE1A93E4C80EFFFBE30
:1000E00001C4FF7F3F000000000011241FBECFEFBE
:1000F000D8E0DEBFCDBF21E0A0E0B1E001C01D929D
:10010000A930B207E1F70E94D3000C944F050C947C
:1001100000001F920F920FB60F9211242F933F935E
:100120008F939F93AF93BF938091050190910601A8
:10013000A0910701B09108013091040123E0230F41
:100140002D3758F50196A11DB11D20930401809310
:10015000050190930601A0930701B09308018091D7
:10016000000190910101A0910201B091030101965B
:10017000A11DB11D8093000190930101A093020184
:10018000B0930301BF91AF919F918F913F912F91B8
:100190000F900FBE0F901F90189526E8230F029620
:1001A000A11DB11DD2CF789484B5826084BD84B581
:1001B000816084BD85B5826085BD85B5816085BD62
:1001C00080916E00816080936E001092810080911A
:1001D00081008260809381008091810081608093A2
:1001E0008100809180008160809380008091B100C7
:1001F00084608093B1008091B00081608093B000F2
:1002000080917A00846080937A0080917A00826085
:1002100080937A0080917A00816080937A00809147
:100220007A00806880937A001092C1008FE38093F7
:100230007E008FEF8AB917B880E480937C0087E84E
:1002400080937A00CFEFD3E0DD24DA940FEF10E053
:1002500090E0E92E90E0F92E80917A0080648093FE
:100260007A0080917A0084FFFCCF80917800909191
:100270007900BE010E943B05D69EC001D79E900D1D
:100280001124B8010E943B0583E0660F771F8A9511
:10029000E1F7072E000C880B990B0E9422029B01AC
:1002A000AC0160E070E080E090E40E94B30220E0E6
:1002B00030E040E85FE30E947D014B015C0120E0FB
:1002C00030E0A9010E94AE0220E030E040E05FE3B0
:1002D00087FD0EC0C501B4010E947E010E94EA01A3
:1002E0006BB9E114F10409F4B7CF0E940000B4CF58
:1002F000C501B4010E947D01F1CF5058BB27AA2748
:100300000E9495010C9474020E94660238F00E94CB
:100310006D0220F039F49F3F19F426F40C94630227
:100320000EF4E095E7FB0C945D02E92F0E94850234
:1003300058F3BA17620773078407950720F079F41A
:10034000A6F50C94A7020EF4E0950B2EBA2FA02D63
:100350000B01B90190010C01CA01A0011124FF2772
:10036000591B99F0593F50F4503E68F11A16F0406D
:10037000A22F232F342F4427585FF3CF469537956C
:100380002795A795F0405395C9F77EF41F16BA0B31
:10039000620B730B840BBAF09150A1F0FF0FBB1FDF
:1003A000661F771F881FC2F70EC0BA0F621F731F28
:1003B000841F48F4879577956795B795F7959E3F85
:1003C00008F0B0CF9395880F08F09927EE0F979516
:1003D000879508950E94F1016894B1110C94A802C8
:1003E00008950E948D0288F09F5798F0B92F9927A1
:1003F000B751B0F0E1F0660F771F881F991F1AF010
:10040000BA95C9F714C0B13091F00E94A702B1E0CB
:1004100008950C94A702672F782F8827B85F39F0CA
:10042000B93FCCF3869577956795B395D9F73EF4A8
:1004300090958095709561957F4F8F4F9F4F089550
:10044000E89409C097FB3EF490958095709561956E
:100450007F4F8F4F9F4F9923A9F0F92F96E9BB2724
:100460009395F695879577956795B795F111F8CFA0
:10047000FAF4BB0F11F460FF1BC06F5F7F4F8F4F0B
:100480009F4F16C0882311F096E911C0772321F001
:100490009EE8872F762F05C0662371F096E8862F99
:1004A00070E060E02AF09A95660F771F881FDAF7F0
:1004B000880F9695879597F9089597F99F6780E833
:1004C00070E060E008959FEF80EC089500240A94A6
:1004D0001616170618060906089500240A9412161F
:1004E0001306140605060895092E0394000C11F452
:1004F000882352F0BB0F40F4BF2B11F460FF04C0FF
:100500006F5F7F4F8F4F9F4F089557FD9058440F57
:10051000551F59F05F3F71F04795880F97FB991F62
:1005200061F09F3F79F0879508951216130614061F
:10053000551FF2CF4695F1DF08C0161617061806AC
:10054000991FF1CF86957105610508940895E89487
:10055000BB2766277727CB0197F908950E943D03B3
:1005600008F48FEF0895FA01EE0FFF1F3096210572
:100570003105A1F16115710561F48038BFE39B0776
:1005800049F168949038810561F08038BFEF9B078E
:1005900041F099234AF5FF3FE1053105210519F1A5
:1005A000E8940894E795D901AA2329F4AB2FBE2F2C
:1005B000F85FD0F310C0FF5F70F4A695E0F7F7394D
:1005C00050F019F0FF3A38F49F779F930DD00F90B9
:1005D00007FC9058089546F00C94630260E070E0C8
:1005E00080E89FE308954FE79F775F934F933F9392
:1005F0002F930E94D2032F913F914F915F910E94C0
:100600004E040C940B0329F416F00C945D020C9428
:10061000A7020C9463020E948D02A8F39638A0F7FB
:1006200007F80F92E8942BE33AEA48EB5FE70E9461
:1006300064040F920F920F924DB75EB70F920E9413
:100640001A04E8E6F0E00E9461034F915F91EF9198
:10065000FF91E595EE1FFF1F49F0FE57E068442724
:10066000EE0F441FFA95E1F74195550B0E94940354
:100670000F9007FE0C9488030895990F0008550FFA
:10068000AA0BE0E8FEEF16161706E807F907C0F018
:1006900012161306E407F50798F0621B730B840B20
:1006A000950B39F40A2661F0232B242B252B21F4FA
:1006B00008950A2609F4A140A6958FEF811D811D9A
:1006C0000895DF93CF931F930F93FF92EF92DF92E2
:1006D0007B018C01689406C0DA2EEF010E94610450
:1006E000FE01E894A5912591359145915591A6F388
:1006F000EF010E949501FE019701A801DA9469F7C4
:10070000DF90EF90FF900F911F91CF91DF910895AF
:100710009B01AC0160E070E080E89FE30C94BB04B7
:100720000C945D020C942D050E948D02D8F3992340
:10073000C9F3940F511DA3F39150504094F059F018
:10074000882332F0660F771F881F91505040C1F701
:100750009E3F51052CF7880F911D9695879597F927
:1007600008955F3FACF0983E9CF0BB278695779547
:100770006795B79508F4B1609395C1F7BB0F58F72B
:1007800011F460FFE8CF6F5F7F4F8F4F9F4FE3CF34
:100790000C94A80216F00C942D050C946302689436
:1007A0000C945D020E948D02A8F39923C1F3AEF36D
:1007B000DF93CF931F930F93FF92C92FDD278823D9
:1007C0002AF02197660F771F881FDAF720E030E0C4
:1007D00040E85FEB9FE3883920F0803E38F02196B7
:1007E0008F770E947E01E0E9F0E004C00E947E0164
:1007F000EDEBF0E00E9461038B01BE01EC01FB2EEA
:100800006F5771097595771F880B990B0E9422020B
:1008100028E132E741E35FE30E946104AF2D9801D4
:10082000AE01FF900F911F91CF91DF910E94950132
:100830000C947402FA01DC01AA0FBB1F9B01AC01EE
:10084000BF5728F4222733274427507820C0B751B8
:1008500090F4AB2F0024469537952795011CA3955E
:10086000D2F3002071F0220F331F441FB395DAF347
:100870000ED00C947D0161307105A0E88A07B9465D
:1008800030F49B01AC016627772788279078309653
:1008900021F0208331834283538308950E946104B1
:1008A0000C9474020E94660238F00E946D0220F0DF
:1008B000952311F00C945D020C94630211240C94A6
:1008C000A8020E94850270F3959FC1F3950F50E036
:1008D000551F629FF001729FBB27F00DB11D639FF2
:1008E000AA27F00DB11DAA1F649F6627B00DA11D98
:1008F000661F829F2227B00DA11D621F739FB00D3E
:10090000A11D621F839FA00D611D221F749F3327AD
:10091000A00D611D231F849F600D211D822F762F46
:100920006A2F11249F5750409AF0F1F088234AF023
:10093000EE0FFF1FBB1F661F771F881F915050408F
:10094000A9F79E3F510580F00C945D020C94A8021B
:100950005F3FE4F3983ED4F3869577956795B79516
:10096000F795E7959F5FC1F7FE2B880F911D969530
:10097000879597F908950E94CF040C9474020E9401
:100980006D0258F00E94660240F029F45F3F29F0A2
:100990000C945D0251110C94A8020C9463020E9405
:1009A000850268F39923B1F3552391F3951B550BF9
:1009B000BB27AA2762177307840738F09F5F5F4F32
:1009C000220F331F441FAA1FA9F335D00E2E3AF071
:1009D000E0E832D091505040E695001CCAF72BD089
:1009E000FE2F29D0660F771F881FBB1F26173707DA
:1009F0004807AB07B0E809F0BB0B802DBF01FF270C
:100A000093585F4F3AF09E3F510578F00C945D0289
:100A10000C94A8025F3FE4F3983ED4F38695779553
:100A20006795B795F7959F5FC9F7880F911D9695C4
:100A3000879597F90895E1E0660F771F881FBB1F20
:100A4000621773078407BA0720F0621B730B840BCD
:100A5000BA0BEE1F88F7E09508959F3F31F0915053
:100A600020F4879577956795B795880F911D969592
:100A7000879597F90895AA1BBB1B51E107C0AA1FD0
:100A8000BB1FA617B70710F0A61BB70B881F991F2F
:100A90005A95A9F780959095BC01CD010895F894D9
:020AA000FFCF86
:107E0000112484B714BE81FFF0D085E080938100F7
:107E100082E08093C00088E18093C10086E0809377
:107E2000C20080E18093C4008EE0C9D0259A86E02C
:107E300020E33CEF91E0309385002093840096BBD3
:107E4000B09BFECF1D9AA8958150A9F7CC24DD24C4
:107E500088248394B5E0AB2EA1E19A2EF3E0BF2EE7
:107E6000A2D0813461F49FD0082FAFD0023811F036
:107E7000013811F484E001C083E08DD089C08234E0
:107E800011F484E103C0853419F485E0A6D080C0E4
:107E9000853579F488D0E82EFF2485D0082F10E0AE
:107EA000102F00270E291F29000F111F8ED06801E7
:107EB0006FC0863521F484E090D080E0DECF843638
:107EC00009F040C070D06FD0082F6DD080E0C81688
:107ED00080E7D80618F4F601B7BEE895C0E0D1E017
:107EE00062D089930C17E1F7F0E0CF16F0E7DF06D8
:107EF00018F0F601B7BEE89568D007B600FCFDCFD4
:107F0000A601A0E0B1E02C9130E011968C91119780
:107F100090E0982F8827822B932B1296FA010C0160
:107F200087BEE89511244E5F5F4FF1E0A038BF0790
:107F300051F7F601A7BEE89507B600FCFDCF97BE46
:107F4000E89526C08437B1F42ED02DD0F82E2BD052
:107F50003CD0F601EF2C8F010F5F1F4F84911BD097
:107F6000EA94F801C1F70894C11CD11CFA94CF0C13
:107F7000D11C0EC0853739F428D08EE10CD085E9AC
:107F80000AD08FE07ACF813511F488E018D01DD067
:107F900080E101D065CF982F8091C00085FFFCCF94
:107FA0009093C60008958091C00087FFFCCF809118
:107FB000C00084FD01C0A8958091C6000895E0E648
:107FC000F0E098E1908380830895EDDF803219F02E
:107FD00088E0F5DFFFCF84E1DECF1F93182FE3DFCA
:107FE0001150E9F7F2DF1F91089580E0E8DFEE27F6
:047FF000FF270994CA
:027FFE00040479
:00000001FF
