:020000040000FA
:100000000C9462000C948A000C948A000C948A0070
:100010000C948A000C948A000C948A000C948A0038
:100020000C948A000C948A000C948A000C948A0028
:100030000C948A000C948A000C948A000C948A0018
:100040000C94FF070C948A000C946F080C944908D8
:100050000C948A000C948A000C948A000C948A00F8
:100060000C94A1080C948A000000000024002700D2
:100070002A000000000023002600290000000000E4
:10008000250028002B0004040404040404040202D4
:100090000202020203030303030301020408102007
:1000A0004080010204081020010204081020000012
:1000B0000008000201000003040700000000000027
:1000C0000000C00911241FBECFEFD8E0DEBFCDBFB6
:1000D00011E0A0E0B1E0E0E6FEE102C005900D9283
:1000E000A637B107D9F723E0A6E7B1E001C01D921A
:1000F000A237B207E1F710E0C2E6D0E004C02197D2
:10010000FE010E94280FC136D107C9F70E948C0A50
:100110000C942E0F0C9400000895089596E0899F8A
:10012000D0011124AF50BD4F90967C936E935F9792
:1001300091E091969C939197E0915E03F0915F031B
:1001400090915D03992339F0309751F0811108C0E7
:1001500080910D030994309719F05C968C91FACF39
:100160000895833081F028F4813099F08230A9F02D
:1001700008958730A9F08830C9F08430B1F48091B7
:1001800080008F7D03C0809180008F7780938000F6
:10019000089584B58F7784BD089584B58F7DFBCF96
:1001A0008091B0008F778093B00008958091B00067
:1001B0008F7DF9CF1F93CF93DF93282F30E0F90184
:1001C000E255FF4F8491F901E656FF4FD491F901B2
:1001D000EA57FF4FC491CC23A9F0162F81110E943A
:1001E000B100EC2FF0E0EE0FFF1FE458FF4FA59198
:1001F000B4918FB7F894EC91111108C0D095DE231B
:10020000DC938FBFDF91CF911F910895DE2BF8CF44
:100210003FB7F8948091EE019091EF01A091F00129
:10022000B091F10126B5A89B05C02F3F19F00196AA
:10023000A11DB11D3FBFBA2FA92F982F8827BC0140
:10024000CD01620F711D811D911D42E0660F771F68
:10025000881F991F4A95D1F708958F929F92AF9268
:10026000BF92CF92DF92EF92FF924B015C010E940E
:1002700008016B017C010E9408016C197D098E093F
:100280009F09683E734081059105A8F321E0821A19
:100290009108A108B10888EEC80E83E0D81EE11CC1
:1002A000F11C81149104A104B10429F7FF90EF908F
:1002B000DF90CF90BF90AF909F908F9008952FB711
:1002C000F8946091EA017091EB018091EC019091BA
:1002D000ED012FBF08950F931F93CF93DF93C82F86
:1002E000D62F86E0C89FF0011124EF50FD4F11A2D8
:1002F000878D90A181309105F1F058F08230910501
:10030000F1F1039709F440C0DF91CF911F910F9154
:1003100008956623C9F361E070E08C2F0E948E007F
:100320000E945F016093490370934A0380934B03DB
:1003300090934C03E9CF0E945F0100914903109113
:100340004A0320914B0330914C03AB01BC01401B8D
:10035000510B620B730B80915B0390915C03B0E0D7
:10036000A0E084179507A607B70748F462E070E09D
:100370008C2FDF91CF911F910F910C948E0063E031
:1003800070E0D111C1CFF4CF70E060E0F1CF809187
:10039000F6019091F701891B990B08950895AF928A
:1003A000BF92CF92DF92EF92FF920F931F93CF9362
:1003B000DF936C017B018B01040F151FEB015E01C4
:1003C000AE18BF08C017D10759F06991D601ED9159
:1003D000FC910190F081E02DC6010995892B79F7F8
:1003E000C501DF91CF911F910F91FF90EF90DF90AA
:1003F000CF90BF90AF900895FC01538D448D252F71
:1004000030E0842F90E0821B930B541710F0CF96AE
:10041000089501970895FC01918D828D981761F0E0
:10042000A28DAE0FBF2FB11D5D968C91928D9F5FF7
:100430009F73928F90E008958FEF9FEF0895FC01D6
:10044000918D828D981731F0828DE80FF11D858D89
:1004500090E008958FEF9FEF0895FC01918D228D1C
:10046000892F90E0805C9F4F821B91098F739927A1
:10047000089588E492E00E942D0221E0892B09F47E
:1004800020E0822F089580E090E0892B29F00E94DF
:10049000390281110C9400000895FC01A48DA80F6D
:1004A000B92FB11DA35ABF4F2C91848D90E00196B6
:1004B0008F739927848FA689B7892C93A089B189D6
:1004C0008C91837080648C93938D848D981306C077
:1004D0000288F389E02D80818F7D80830895EF92DB
:1004E000FF920F931F93CF93DF93EC0181E0888FEE
:1004F0009B8D8C8D98131AC0E889F989808185FFBE
:1005000015C09FB7F894EE89FF896083E889F9895F
:1005100080818370806480839FBF81E090E0DF9161
:10052000CF911F910F91FF90EF900895F62E0B8DB4
:1005300010E00F5F1F4F0F731127E02E8C8D8E116F
:100540000CC00FB607FCFACFE889F989808185FFD6
:10055000F5CFCE010E944D02F1CFEB8DEC0FFD2FB8
:10056000F11DE35AFF4FF0829FB7F8940B8FEA8991
:10057000FB8980818062CFCFCF93DF93EC01888DA0
:100580008823B9F0AA89BB89E889F9898C9185FD0E
:1005900003C0808186FD0DC00FB607FCF7CF8C919C
:1005A00085FFF2CF808185FFEDCFCE010E944D0205
:1005B000E9CFDF91CF910895CF93DF9370E0FB01F6
:1005C000E255FF4F8491FB01E656FF4FD4916A57E5
:1005D0007F4FFB01C491CC23A1F081110E94B10097
:1005E000EC2FF0E0EE0FFF1FEE58FF4FA591B491F6
:1005F000EC91ED2381E090E009F480E0DF91CF9170
:10060000089580E090E0FACF862F642F0C94DA00F2
:10061000CF93DF9370E0FB01E656FF4F24916A57BA
:100620007F4FFB0184918823C9F090E0880F991FC8
:10063000FC01E859FF4FA591B491FC01E458FF4F2C
:10064000C591D49141110DC09FB7F8948C9120951C
:1006500082238C938881282328839FBFDF91CF91A9
:100660000895423051F49FB7F8943C91822F8095C1
:1006700083238C93E8812E2BEFCF8FB7F894EC91E6
:100680002E2B2C938FBFEACF2091B701260F332753
:10069000331F21323105ECF420911E02FC0190E061
:1006A00080E0243069F082E00895A091B7012191A3
:1006B000AC0149565E4FA40FB52FB11D2C93019686
:1006C000861798F38091B701680F6093B70180E0B7
:1006D000089581E0089510921E0281E080931D022A
:1006E0001092F80161E082E10E94DA0061E083E1AA
:1006F0000E94DA00E9EBF0E080818E7F80838081C8
:100700008D7F808388E48093B80085E48093BC006B
:1007100008951092F7011092F6011092250210929E
:1007200047020E946B038CE890E09093F501809360
:10073000F4018DE890E09093F3018093F201089525
:10074000CF93DF9391E0909396018823B9F0C09105
:10075000B800D091BA008091BC008A7B8093BC0025
:1007600060E082E10E94DA0060E083E10E94DA004A
:100770000E946B03D093BA00C093B800DF91CF9171
:1007800008958F929F92AF92BF92CF92DF92EF9295
:10079000FF920F931F93CF93DF93D0914702D132F3
:1007A00008F0D7C0182FC09146020E9408016B01C3
:1007B0007C0180911E0281116BC082E080931E0239
:1007C00010931D028FEF80931C0210921B02D09396
:1007D0001A02A6E2B2E0EAEFF1E080E0D81391C09D
:1007E0001092F9018091F901CC0FC82BC093F90147
:1007F0008091F801813009F088C01092F8010E94C0
:1008000008016B017C018091F9018093BB0080910C
:10081000200290912102A0912202B0912302892B03
:100820008A2B8B2BA1F00E940801009120021091CD
:10083000210220912202309123026C197D098E0938
:100840009F09061717072807390708F442C0809147
:10085000BC0083FDD8CF85EC8093BC000E940801CA
:100860006B017C0180911E02823009F450C080919E
:100870001C028F3F09F46FC080911C02803209F482
:100880006CC080911C02803309F469C084E026C0EA
:100890008091200290912102A0912202B091230226
:1008A000892B8A2B8B2B09F484CF0E94080180901E
:1008B000200290902102A0902202B09023026C1995
:1008C0007D098E099F0986169706A806B90608F0C5
:1008D00070CF80911F020E94A00385E01092250234
:1008E0001092470210922402DF91CF911F910F9135
:1008F000FF90EF90DF90CF90BF90AF909F908F9040
:1009000008959D9191938F5F69CF85EEA5CF8091DA
:10091000200290912102A0912202B0912302892B02
:100920008A2B8B2B09F49ECF0E9408010091200294
:100930001091210220912202309123026C197D092D
:100940008E099F09061717072807390708F08ACF6D
:10095000C0CF81E0C3CF80E0C1CF82E0BFCF83E0D2
:10096000BDCFEF92FF920F931F93CF93DF93EC01D4
:100970008B017C0183E7E80EF11CD7018D919C91DE
:10098000FE01E159FF4F208131E030932402209392
:1009900046021092250210924702DC01ED91FC9173
:1009A0000190F081E02D0995FE01E059FF4F808113
:1009B000823058F0F70180819181DC01ED91FC914A
:1009C0000190F081E02D612F099581E00E94C10323
:1009D000CF58DF4F08831983DF91CF911F910F917B
:1009E000FF90EF90089521E030E002C0220F331F06
:1009F0006A95E2F7FC01EF58FF4F60817181442353
:100A000041F0262B372B31832083608171810C9438
:100A1000B1042095309526233723F5CF0895E09132
:100A2000F7018091F601E81730F4F0E0EA58FE4F44
:100A3000808190E008958FEF9FEF08959091F701E6
:100A40008091F6012FEF3FEF981748F4E92FF0E07F
:100A5000EA58FE4F208130E09F5F9093F701C90173
:100A60000895CF92DF92EF92FF920F931F93CF934F
:100A7000DF937C01CB018A0120912402222389F09B
:100A8000EB016B01C40ED51ECC15DD0569F0699133
:100A9000D701ED91FC910190F081E02DC7010995FE
:100AA000F3CF642F0E944403C801DF91CF911F91BF
:100AB0000F91FF90EF90DF90CF900895CF93DF9349
:100AC0001F92CDB7DEB76983209124022223F9F06B
:100AD00020914702203258F021E030E0FC013383BE
:100AE000228390E080E00F90DF91CF910895809174
:100AF0002502E82FF0E0EA5DFD4F998190838F5F3A
:100B0000809325028093470281E090E0ECCF61E082
:100B1000CE0101960E944403F7CFFC01248131E00D
:100B2000309324022093460210922502109247022D
:100B30008385682B85EE92E00E945E0581E00C942F
:100B4000C103089590E080E008958F929F92AF9244
:100B5000BF92CF92DF92EF92FF920F931F93CF93AA
:100B60008B01C42F0E9408016B017C0180911E0241
:100B7000811169C0C13208F0C0E281E080931E0299
:100B800080931D029FEF90931C0210921B029C0FFA
:100B900090931A028093F9016091F901000F111FDF
:100BA000602B6093F9018091F801813009F082C0D7
:100BB0001092F8010E9408016B017C018091F901FB
:100BC0008093BB008091200290912102A09122028B
:100BD000B0912302892B8A2B8B2BA1F00E94080154
:100BE00000912002109121022091220230912302D3
:100BF0006C197D098E099F09061717072807390701
:100C000008F442C08091BC0083FDD8CF85EC80936E
:100C1000BC000E9408016B017C0180911E028130A2
:100C200009F44AC080911B028C1710F4C0911B027A
:100C3000AAEFB1E0E6E7F1E080E08C1751F19D9179
:100C400091938F5FFACF8091200290912102A09121
:100C50002202B0912302892B8A2B8B2B09F486CF99
:100C60000E9408018090200290902102A090220210
:100C7000B09023026C197D098E099F09861697068C
:100C8000A806B90608F072CF80911F020E94A00347
:100C9000C0E01092F701C093F6018C2FCF911F9105
:100CA0000F91FF90EF90DF90CF90BF90AF909F900B
:100CB0008F90089585EEABCF809120029091210214
:100CC000A0912202B0912302892B8A2B8B2B09F44D
:100CD000A4CF0E94080100912002109121022091CE
:100CE0002202309123026C197D098E099F09061793
:100CF00017072807390708F090CFC6CFCF92DF92A9
:100D0000EF92FF920F931F93CF93DF9321E030E098
:100D1000790102C0EE0CFF1C6A95E2F76C0120E736
:100D2000C20ED11CD6014C9150E0FC01E159FF4F9D
:100D3000608170E0EC01CD58DF4F888199810E947D
:100D4000A50588819981DC01ED91FC910284F385F0
:100D5000E02D09958C01F6018081823060F0888158
:100D60009981DC01ED91FC910284F385E02D0995D8
:100D700020E0022B182B0E211F2181E090E00E15A0
:100D80001F0511F090E080E0DF91CF911F910F914E
:100D9000FF90EF90DF90CF9008950F931F93CF9324
:100DA0008C01C62F0E948D056C2F6460C8010E94C3
:100DB0008D056C2F6B7FC8010E948D0583EC90E040
:100DC0000197F1F7CF911F910F9108950F931F9302
:100DD000CF93DF938C01D62FC42F607F642B0E94AA
:100DE000CD0680E1D89FB00111246C2BC801DF91A2
:100DF000CF911F910F910C94CD0641E00E94E60621
:100E000081E090E00895CF93DF93CDB7DEB72897C8
:100E10000FB6F894DEBF0FBECDBF98E0E8E1F1E079
:100E2000DE01119601900D929A95E1F790916E0373
:100E3000981708F48FEF90E0880F991F21E030E0B9
:100E40002C0F3D1F820F931FFC016081606840E002
:100E500086E693E028960FB6F894DEBF0FBECDBFAE
:100E6000DF91CF910C94E606FB0101900020E9F799
:100E70003197AF01461B570BDC01ED91FC910280CD
:100E8000F381E02D09948F929F92AF92BF920F93BE
:100E90001F93CF93DF93CDB7DEB7A1970FB6F8942A
:100EA000DEBF0FBECDBF19A2423008F44AE08E016A
:100EB0000F5D1F4F842E912CB12CA12CA501940104
:100EC0000E94060FE62FB901CA01EA3004F5E05D81
:100ED000D801EE938D01232B242B252B79F790E05D
:100EE00080E0109729F0BD0186E693E00E94340768
:100EF000A1960FB6F894DEBF0FBECDBFDF91CF91A4
:100F00001F910F91BF90AF909F908F900895E95CD3
:100F1000DFCFCF92DF92EF92FF926B017C0141E035
:100F20006DE286E693E00E94E60666277727CB010E
:100F30006C197D098E099F094AE00E9443070196BA
:100F4000FF90EF90DF90CF900895BC01990F880B30
:100F5000990B97FD0C9489074AE00C944307CF93B3
:100F6000DF93EC010A9720F490E080E00E94A5074F
:100F7000BE01DD0F880B990B97FF04C0DF91CF9165
:100F80000C9489074AE0DF91CF910C94430785EDDB
:100F90008093BC008091200290912102A0912202B6
:100FA000B09123020796A11DB11D23E0B695A79528
:100FB000979587952A95D1F72091BC0024FD03C011
:100FC00010921E02089540912002509121026091DA
:100FD000220270912302452B462B472B69F3009781
:100FE000A105B10541F02AE22A95F1F700C0019769
:100FF000A109B109E1CF80911F020C94A0031F92B7
:101000000F920FB60F9211242F933F938F939F93BC
:10101000AF93BF938091EA019091EB01A091EC0115
:10102000B091ED013091E90123E0230F2D3758F500
:101030000196A11DB11D2093E9018093EA019093CF
:10104000EB01A093EC01B093ED018091EE01909142
:10105000EF01A091F001B091F1010196A11DB11D28
:101060008093EE019093EF01A093F001B093F10112
:10107000BF91AF919F918F913F912F910F900FBE94
:101080000F901F90189526E8230F0296A11DB11D01
:10109000D2CF1F920F920FB60F9211242F933F932E
:1010A0004F935F936F937F938F939F93AF93BF9370
:1010B000EF93FF9388E492E00E944D02FF91EF913D
:1010C000BF91AF919F918F917F916F915F914F9160
:1010D0003F912F910F900FBE0F901F9018951F9268
:1010E0000F920FB60F9211242F938F939F93EF932C
:1010F000FF93E0915802F09159028081E0915E02E5
:10110000F0915F0282FD1BC09081809161028F5F30
:101110008F7320916202821741F0E0916102F0E04A
:10112000E85BFD4F958F80936102FF91EF919F9156
:101130008F912F910F900FBE0F901F901895808167
:10114000F4CF1F920F920FB60F9211242F933F935B
:101150004F935F936F937F938F939F93AF93BF93BF
:10116000EF93FF938091B900887F803609F44AC0DD
:10117000F0F5883209F4A7C018F5803109F49BC056
:10118000B8F4882309F4F9C0883009F494C0FF91B9
:10119000EF91BF91AF919F918F917F916F915F91EF
:1011A0004F913F912F910F900FBE0F901F90189568
:1011B000883109F488C0803251F780931C0214C032
:1011C000803409F49DC040F48033B9F38833F9F6D4
:1011D00080931C0285ECB0C0803509F485C0883549
:1011E00009F496C0883499F60E94C707D0CF883991
:1011F00009F48CC038F5883729F050F4883611F09E
:10120000803729F683E080931E021092D90157C0DF
:10121000883809F47BC0803919F0803809F0B7CFDD
:101220008091D901803208F071C0E091D90181E04C
:101230008E0F8093D9018091BB00F0E0E754FE4F00
:1012400080833DC0803B39F0E0F4803A09F479C0F6
:10125000883A09F09CCF84E080931E021092B80176
:101260001092B701E091F401F091F5010995809198
:10127000B70181110FC081E08093B70110929701EF
:1012800009C0803C09F4A6CF883C09F4A3CF883B71
:1012900009F07DCFE091B80181E08E0F8093B80115
:1012A000F0E0E956FE4F80818093BB009091B80139
:1012B0008091B70129C08091F9018093BB0085EC32
:1012C0008093BC0064CF90911B0280911A02981702
:1012D00058F5E0911B0281E08E0F80931B02F0E035
:1012E000E650FE4F8081E9CFE0911B0281E08E0F36
:1012F00080931B028091BB00F0E0E650FE4F80839C
:1013000090911B0280911A029817C8F285E8D8CFF5
:10131000E0911B0281E08E0F80931B028091BB0045
:10132000F0E0E650FE4F808380911D0281115CCF7A
:1013300081E08093F80184EA8093BC0010921E0241
:1013400026CF85EC8093BC0010921E028091D901BB
:10135000803230F4E091D901F0E0E754FE4F108282
:101360006091D90170E0E091F201F091F30189EB15
:1013700091E009951092D9010ACF10921C0234CF46
:10138000CF92DF92EF92FF9210924B0210924A029C
:1013900088EEC82E83E0D82EE12CF12CC0924C02AE
:1013A000D0924D02E0924E02F0924F0284E291E020
:1013B000909349028093480285EC90E09093550207
:1013C0008093540284EC90E09093570280935602ED
:1013D00080EC90E0909359028093580281EC90E069
:1013E00090935B0280935A0282EC90E090935D02AE
:1013F00080935C0286EC90E090935F0280935E02A3
:1014000010926102109262021092630210926402C2
:101410000E9489031092E8021092E702C092E9024A
:10142000D092EA02E092EB02F092EC0286E391E0C5
:101430009093E6028093E50210926903109268038C
:1014400088E491E0909367038093660387E280933A
:101450006A0380E180936F0382E0809370031092AF
:1014600071031092F3021092F7021092F60210929A
:10147000F802EDE0F3E010821482138215823696B2
:1014800083E0E934F807B9F784E091E090935403DE
:101490008093530380E091E090935603809355032B
:1014A00084E0809357038093580388E091E0909301
:1014B0005203809351038AE090E090935A03809303
:1014C000590384EF91E090935C0380935B03109247
:1014D0005F0310925E0310924D0310924E03109220
:1014E0004F031092500310925D0384E591E09093B6
:1014F000F2028093F10280E28093600381E08093A6
:10150000610385EE92E09093650380936403FF90FE
:10151000EF90DF90CF900895789484B5826084BD79
:1015200084B5816084BD85B5826085BD85B58160E7
:1015300085BD80916E00816080936E001092810065
:101540008091810082608093810080918100816020
:1015500080938100809180008160809380008091E1
:10156000B10084608093B1008091B000816080936D
:10157000B00080917A00846080937A0080917A0034
:10158000826080937A0080917A00816080937A00F3
:1015900080917A00806880937A001092C100E09177
:1015A0005802F091590282E08083E0915402F09158
:1015B00055021082E0915602F091570283E3808336
:1015C00010926002E0915C02F0915D0286E08083FF
:1015D000E0915A02F0915B02808180618083E0910A
:1015E0005A02F0915B02808188608083E0915A0208
:1015F000F0915B02808180688083E0915A02F091D3
:101600005B0280818F7D80830E9489036FEF7FEF73
:1016100081EF92E00E94B1044091610350E060913B
:10162000600370E080916403909165030E94A505BA
:101630008091640390916503DC01ED91FC9102843B
:10164000F385E02D09959093630380936203809165
:1016500061038230B8F08091640390916503DC01EE
:10166000ED91FC910284F385E02D099520E0382F5F
:101670008091620390916303822B932B9093630379
:10168000809362030E94890310926B038091700320
:10169000823018F098E090936B0380936E0362E3BE
:1016A00070E080E090E00E942D016091710386E679
:1016B00093E00E948D0568EE73E080E090E00E9468
:1016C0002D0160E386E693E00E94CD06CBE4D6E4EC
:1016D000CE010197F1F760E386E693E00E94CD0624
:1016E0002197F1F760E386E693E00E94CD0683E55B
:1016F00092E00197F1F760E286E693E00E94CD0662
:1017000060916B03606240E086E693E00E94E6062B
:1017100084E080936C0340E06CE086E693E00E94F6
:10172000E60640E061E086E693E00E94E606CBE351
:10173000DFE1CE010197F1F782E080936D0340E095
:1017400066E086E693E00E94E60640E062E086E618
:1017500093E00E94E606CE010197F1F788E08093BE
:10176000710360E086E693E00E948D0540E062E050
:1017700086E693E00E94E6062197F1F7812C912CF2
:101780005401839422242A94322C7724739448E6BB
:10179000442E70925D030E945F0100914D031091F1
:1017A0004E0320914F0330915003AB01BC01401B0D
:1017B000510B620B730B8091590390915A03B0E067
:1017C000A0E084179507A607B70708F003C1612CAE
:1017D00080915803681608F050C0E62CF12CE09177
:1017E0005503F0915603EE0DFF1D40E0608181EF3F
:1017F00092E00E94F30495018401062C04C0000FBE
:10180000111F221F331F0A94D2F76801009510950B
:10181000512C80915703581608F5C52DD0E0E09162
:101820005303F0915403EC0FFD1F608181EF92E0B0
:101830000E947E062496CC0FDD1FCF50DD4F892BF2
:1018400041F4888199818C299D29998388835394B7
:10185000E0CF8881998180239123F7CF8091550330
:1018600090915603E80EF91E41E0F701608181EF87
:1018700092E00E94F3046394ABCFC1EFD2E08E01FB
:10188000D8015F968D919C919097892B49F45C9635
:101890001C925C975E963C922E925D9791961C925C
:1018A0000A5F1F4FB3E00D321B0751F7F12C8091F7
:1018B0005703F81608F053C0E12C8F2D90E0880FE5
:1018C000991FFC01E750FD4F6F0120915803E2166C
:1018D00008F043C0D6016D917C910E2C02C0769524
:1018E00067950A94E2F7F29E900111242E0D311DA6
:1018F000E1EFF2E080E0458D568D2417350709F4BD
:1019000077C28F5F36968A30B1F760FF24C0E1EF6F
:10191000F2E090E080E0448D411118C0E091510365
:10192000F0915203E20FF31F4081B6E0B89FF0013F
:10193000B99FF00D1124EF50FD4F448F368F258F46
:1019400010A2178E61E00E946B0105C001963696C9
:101950008A30910501F7E394B8CFF394A8CFF12C26
:1019600089A18111F82E26960C171D07C9F70E9430
:101970005F0160934D0370934E0380934F039093E8
:101980005003FF2039F180911203882319F18091CF
:101990001003909111030197E9F480910D038234B3
:1019A00009F400C1833409F031C18091E7019091BD
:1019B000E801892B09F018C18091E4019091E501BB
:1019C000873191050CF00BC101969093E50180934E
:1019D000E40102C010925D0370922402409246021C
:1019E000109225021092470260E085EE92E00E947C
:1019F0005E0581E00E94C1038111DEC147E050E035
:101A000068E670E085EE92E00E94A5058091F601FF
:101A10009091F701891B990B07970CF4CDC185EEC6
:101A200092E00E941E05D82F982F92959770CAE0D9
:101A30008D2F8F709C9F800D11248093DB0185EE8C
:101A400092E00E941E05982F92959F708F709C9F28
:101A5000800D11248093DC0185EE92E00E941E052A
:101A6000982F929593708F709C9F800D1124809376
:101A7000DD0185EE92E00E941E05982F92959F70E1
:101A80008F709C9F800D11248093DE0185EE92E083
:101A90000E941E05982F92959F708F709C9F800DBD
:101AA00011248093DF0185EE92E00E941E05982F9D
:101AB00092959F708F709C9F800D11248093E00100
:101AC00085EE92E00E941E05982F9F70925E82958F
:101AD0008F708C9F900D11249093E101D7FD6CC104
:101AE00080E00E9403076FE571E086E693E00E94C4
:101AF00034076091DF0170E090E080E04AE00E94EE
:101B0000430767E671E086E693E00E943407809120
:101B1000E00190E00E94AF0767E671E086E693E09F
:101B20000E9434078091E10190E08E54984F0E940A
:101B3000A50781E00E94030769E671E086E693E06D
:101B40000E9434078091E601882309F442C10E9473
:101B50005F01693E73408105910528F08091DA01AB
:101B600087258093DA018091E7019091E801892B24
:101B700009F00BC18091DA01882309F4FFC061E705
:101B800071E086E693E00E94340764E771E086E640
:101B900093E00E9434078091E2019091E3010E945A
:101BA000AF070AC16AE571E088E492E00E94340759
:101BB0006CE571E088E492E00E94340781E090E0F7
:101BC0002091E7013091E801232B11F090E080E0B3
:101BD0009093E8018093E7017092E601FDCE1092A8
:101BE000E5011092E401F8CE8091E2019091E301C9
:101BF0008B33910534F401969093E3018093E201D5
:101C0000EBCE1092E3011092E201E6CE843431F57E
:101C10008091E7019091E801892B81F48091E401A2
:101C20009091E5011816190614F40197CECEE7E15C
:101C3000F0E0F093E501E093E401CECE8091E20183
:101C40009091E3011816190614F40197D5CF2BE3F0
:101C500030E03093E3012093E201BECE833209F0FD
:101C6000BBCE8091E4018093DD018091E2018093FD
:101C7000DC017092240240924602109225021092DA
:101C8000470260E085EE92E00E945E0560E885EE26
:101C900092E00E945E058091DC01CAE06C2F0E94F8
:101CA000FA0E8295807F682F690F85EE92E00E9480
:101CB0005E058091DD016C2F0E94FA0E8295807F77
:101CC000682F690F85EE92E00E945E058091DE012B
:101CD0006C2F0E94FA0E8295807F682F690F85EE27
:101CE00092E00E945E058091DF016C2F0E94FA0E47
:101CF0008295807F682F690F85EE92E00E945E05D5
:101D00008091E0016C2F0E94FA0E8295807F682FEF
:101D1000690F85EE92E00E945E058091E1018E518F
:101D20006C2F0E94FA0E8295807F682F690F85EED6
:101D300092E00E945E0581E00E94C10381111BC0F8
:101D400070922402109225021092470260E085EE04
:101D500092E00E945E058091DB016C2F0E94FA0EDA
:101D60008295807F682F690F85EE92E00E945E0564
:101D700081E00E94C1031092E6012ECE8091E40121
:101D80009091E5010E94AF0700CF8091E40190910E
:101D9000E5010E94AF0764E771E086E693E00E94E8
:101DA00034078091DA01882309F4F5CE61E771E008
:101DB00086E693E00E94340780E090E0892B09F4E6
:101DC000E8CC0E943902882309F4DFCC0E9400008D
:101DD000DCCC8091DD0190E09093E5018093E401FB
:101DE0002091DC0130E03093E3012093E201CACF7F
:101DF0006170A9CD991B79E004C0991F961708F06E
:101E0000961B881F7A95C9F780950895A1E21A2E2E
:101E1000AA1BBB1BFD010DC0AA1FBB1FEE1FFF1F8E
:101E2000A217B307E407F50720F0A21BB30BE40BDE
:101E3000F50B661F771F881F991F1A9469F7609525
:101E40007095809590959B01AC01BD01CF010895DF
:101E5000EE0FFF1F0590F491E02D0994F894FFCF49
:101E6000030201000706050431323341343536429E
:101E7000373839432A30234400004000140054000E
:101E8000000000006F02CF01FC01BC022D020B021A
:101E90001F02000000005E053105A2050E05C70106
:101EA0001E050F0500000000FD06CF01A205A105DB
:101EB00000000000CE01F3047E0642000D0A00443B
:101EC0002F4D2F593D20002F0054696D65203D2076
:061ED000002020003A0092
:107E0000112484B714BE81FFF0D085E080938100F7
:107E100082E08093C00088E18093C10086E0809377
:107E2000C20080E18093C4008EE0C9D0259A86E02C
:107E300020E33CEF91E0309385002093840096BBD3
:107E4000B09BFECF1D9AA8958150A9F7CC24DD24C4
:107E500088248394B5E0AB2EA1E19A2EF3E0BF2EE7
:107E6000A2D0813461F49FD0082FAFD0023811F036
:107E7000013811F484E001C083E08DD089C08234E0
:107E800011F484E103C0853419F485E0A6D080C0E4
:107E9000853579F488D0E82EFF2485D0082F10E0AE
:107EA000102F00270E291F29000F111F8ED06801E7
:107EB0006FC0863521F484E090D080E0DECF843638
:107EC00009F040C070D06FD0082F6DD080E0C81688
:107ED00080E7D80618F4F601B7BEE895C0E0D1E017
:107EE00062D089930C17E1F7F0E0CF16F0E7DF06D8
:107EF00018F0F601B7BEE89568D007B600FCFDCFD4
:107F0000A601A0E0B1E02C9130E011968C91119780
:107F100090E0982F8827822B932B1296FA010C0160
:107F200087BEE89511244E5F5F4FF1E0A038BF0790
:107F300051F7F601A7BEE89507B600FCFDCF97BE46
:107F4000E89526C08437B1F42ED02DD0F82E2BD052
:107F50003CD0F601EF2C8F010F5F1F4F84911BD097
:107F6000EA94F801C1F70894C11CD11CFA94CF0C13
:107F7000D11C0EC0853739F428D08EE10CD085E9AC
:107F80000AD08FE07ACF813511F488E018D01DD067
:107F900080E101D065CF982F8091C00085FFFCCF94
:107FA0009093C60008958091C00087FFFCCF809118
:107FB000C00084FD01C0A8958091C6000895E0E648
:107FC000F0E098E1908380830895EDDF803219F02E
:107FD00088E0F5DFFFCF84E1DECF1F93182FE3DFCA
:107FE0001150E9F7F2DF1F91089580E0E8DFEE27F6
:047FF000FF270994CA
:027FFE00040479
:00000001FF
