:100000000C9434000C943E000C943E000C943E0082
:100010000C943E000C943E000C943E000C943E0068
:100020000C943E000C943E000C943E000C943E0058
:100030000C943E000C943E000C943E000C943E0048
:100040000C943E000C943E000C943E000C943E0038
:100050000C943E000C943E000C943E000C943E0028
:100060000C943E000C943E0011241FBECFEFD8E04C
:10007000DEBFCDBF0E9440000C945A000C940000DB
:100080008FEF8AB984B980E280937C0027EC2093BB
:100090007A0080917A0084FFFCCF809179008BB93F
:1000A0008091780090E036E0959587953A95E1F754
:0800B00085B9EDCFF894FFCFF4
:00000001FF
