:020000040000FA
:100000000C9462000C948A000C948A000C948A0070
:100010000C948A000C948A000C94C00E0C948A00F4
:100020000C948A000C948A000C948A000C948A0028
:100030000C948A000C948A000C948A000C948A0018
:100040000C9423030C948A000C9493030C946D037A
:100050000C948A000C948A000C948A000C948A00F8
:100060000C948A000C948A000000000024002700F1
:100070002A0000000000250028002B0000000000DE
:1000800023002600290004040404040404040202DA
:100090000202020203030303030301020408102007
:1000A0004080010204081020010204081020000012
:1000B0000008000201000003040700000000000027
:1000C00000001F0F11241FBECFEFD8E0DEBFCDBF51
:1000D00011E0A0E0B1E0E2E1F1E202C005900D9292
:1000E000A037B107D9F722E0A0E7B1E001C01D9227
:1000F000A13AB207E1F710E0C2E6D0E004C02197D0
:10010000FE010E947110C136D107C9F70E94C30ECB
:100110000C9487100C940000833081F028F4813017
:1001200099F08230A9F008958730A9F08830C9F09D
:100130008430B1F4809180008F7D03C08091800075
:100140008F7780938000089584B58F7784BD08955C
:1001500084B58F7DFBCF8091B0008F778093B00006
:1001600008958091B0008F7DF9CFCF93DF93E0EBBE
:10017000F0E08491ECE9F0E0D491E8E8F0E0C4919B
:10018000CC23A1F081110E948C00EC2FF0E0EE0F47
:10019000FF1FE458FF4FA591B491EC91ED2381E04E
:1001A00090E009F480E0DF91CF91089580E090E045
:1001B000FACF1F93CF93DF93282F30E0F901E25558
:1001C000FF4F8491F901E656FF4FD491F901EA57A8
:1001D000FF4FC491CC23A9F0162F81110E948C00EF
:1001E000EC2FF0E0EE0FFF1FEE58FF4FA591B491FA
:1001F0008FB7F894EC91111108C0D095DE23DC93F1
:100200008FBFDF91CF911F910895DE2BF8CFCF9351
:10021000DF9390E0FC01E656FF4F24918A579F4FF1
:10022000FC0184918823D1F090E0880F991FFC0194
:10023000E859FF4FA591B491FC01EE58FF4FC591CD
:10024000D49161110EC09FB7F8948C91E22FE09584
:100250008E238C932881E223E8839FBFDF91CF9187
:1002600008958FB7F894EC91E22BEC938FBFF6CF03
:10027000AF92BF92CF92DF92EF92FF920F931F93B4
:10028000CF93DF936C017B018B01040F151FEB01F2
:100290005E01AE18BF08C017D10759F06991D601A9
:1002A000ED91FC910190F081E02DC6010995892B1B
:1002B00079F7C501DF91CF911F910F91FF90EF90DA
:1002C000DF90CF90BF90AF900895FC01538D448D87
:1002D000252F30E0842F90E0821B930B541710F0F1
:1002E000CF96089501970895FC01918D828D9817FE
:1002F00061F0A28DAE0FBF2FB11D5D968C91928DD6
:100300009F5F9F73928F90E008958FEF9FEF089506
:10031000FC01918D828D981731F0828DE80FF11DCF
:10032000858D90E008958FEF9FEF0895FC01918DEA
:10033000228D892F90E0805C9F4F821B91098F73E3
:10034000992708958CE991E00E94960121E0892B7C
:1003500009F420E0822F08950E94A20181110C94DB
:100360000000089580E090E0892B11F00C94AC011E
:100370000895FC01A48DA80FB92FB11DA35ABF4F3A
:100380002C91848D90E001968F739927848FA68994
:10039000B7892C93A089B1898C91837080648C93E8
:1003A000938D848D981306C00288F389E02D808197
:1003B0008F7D80830895EF92FF920F931F93CF93C9
:1003C000DF93EC0181E0888F9B8D8C8D98131AC090
:1003D000E889F989808185FF15C09FB7F894EE8977
:1003E000FF896083E889F9898081837080648083D4
:1003F0009FBF81E090E0DF91CF911F910F91FF901F
:10040000EF900895F62E0B8D10E00F5F1F4F0F73C6
:100410001127E02E8C8D8E110CC00FB607FCFACF81
:10042000E889F989808185FFF5CFCE010E94B90165
:10043000F1CFEB8DEC0FFD2FF11DE35AFF4FF08252
:100440009FB7F8940B8FEA89FB8980818062CFCFB8
:10045000CF93DF93EC01888D8823B9F0AA89BB89FB
:10046000E889F9898C9185FD03C0808186FD0DC0E6
:100470000FB607FCF7CF8C9185FFF2CF808185FF07
:10048000EDCFCE010E94B901E9CFDF91CF91089560
:1004900060E082E00E9407010E94B500892BB1F460
:1004A0000E946C060E94B500892B81F40E94B50061
:1004B000892BE1F380917201909173010196843050
:1004C00091054CF4909373018093720186E090E063
:1004D0000E94F808E1CF1092730110927201F6CFDA
:1004E0000F931F93ECE9F1E0A089B18982E08C932E
:1004F000A485B5851C92A685B7858FEC8C93108E4C
:10050000A489B58986E08C93A289B3898C91806196
:100510008C93A289B3898C9188608C93A289B389CA
:100520008C9180688C930288F389E02D80818F7D87
:10053000808310E000E021E040E850E066E271E0F6
:1005400088E492E00E94AE0C21E040E850E06EE3C7
:1005500071E083E093E00E94AE0C21E040E850E0BF
:100560006BE471E083EE92E00E94AE0C21E040E883
:1005700050E06AE571E083EC92E00E94AE0C1F91BE
:100580000F910C94D60D61E085E00E9407018091E7
:10059000720190917301039789F461E085E00E94F4
:1005A000D90041E050E06AE671E08CE991E00E94F8
:1005B000380186E090E00E94F808E9CF60E085E02D
:1005C0000E94D900F6CF61E084E00E94070180918B
:1005D000720190917301029789F461E084E00E94B6
:1005E000D90041E050E06CE671E08CE991E00E94B6
:1005F000380186E090E00E94F808E9CF60E084E0EE
:100600000E94D900F6CF61E083E00E94070180914B
:10061000720190917301019789F461E083E00E9477
:10062000D90041E050E06EE671E08CE991E00E9473
:10063000380186E090E00E94F808E9CF60E083E0AE
:100640000E94D900F6CF1F920F920FB60F9211247D
:100650002F933F938F939F93AF93BF9380913E02CD
:1006600090913F02A0914002B091410230913D0231
:1006700023E0230F2D3758F50196A11DB11D2093BE
:100680003D0280933E0290933F02A0934002B093BC
:1006900041028091390290913A02A0913B02B091BF
:1006A0003C020196A11DB11D8093390290933A023C
:1006B000A0933B02B0933C02BF91AF919F918F9169
:1006C0003F912F910F900FBE0F901F90189526E825
:1006D000230F0296A11DB11DD2CF1F920F920FB60C
:1006E0000F9211242F933F934F935F936F937F93B8
:1006F0008F939F93AF93BF93EF93FF938CE991E018
:100700000E94B901FF91EF91BF91AF919F918F919D
:100710007F916F915F914F913F912F910F900FBEFD
:100720000F901F9018951F920F920FB60F921124E1
:100730002F938F939F93EF93FF93E091AC01F091F0
:10074000AD018081E091B201F091B30182FD1BC047
:1007500090818091B5018F5F8F732091B6018217D0
:1007600041F0E091B501F0E0E456FE4F958F8093A3
:10077000B501FF91EF919F918F912F910F900FBE37
:100780000F901F9018958081F4CFE0914402F09172
:1007900045028081811107C08FEF9FEF90939001F8
:1007A00080938F010895E0914402F0914502058005
:1007B000F681E02D80819181F1CFCF93DF93DC0131
:1007C0001596ED91FC910680F781E02DA489B589FD
:1007D0008685978520893189EC013D832C83C089EA
:1007E000D1899B838A83CF010C9611962D913C91E0
:1007F00012972817390721F41296DC93CE9311979C
:10080000158A148A2C9121502C9320918D0121114D
:1008100057C0A285B3858481958126813781EC01FB
:100820003D832C83C681D7819B838A83CF01029627
:1008300011962D913C9112972817390721F41296A1
:10084000DC93CE931197138612862C9121502C9312
:10085000C689209197022C1710F4C093970229E0C3
:100860002C9FE0011124CD58DD4F0980DA81C02D85
:10087000D583C4834C815D8157834683AC81BD8120
:1008800013969C938E9312979D838C83A689A29F27
:10089000D0011124AD58BD4FB387A2878C918F5FD3
:1008A0008C93A0919A02B0919B02968956968C9156
:1008B000891730F581E080938C01DF91CF91089505
:1008C000A0915902B0915A02B787A68714962D912C
:1008D0003C911597318B208B1496CD91DC91159717
:1008E0009B838A8315969C938E93149788E592E058
:1008F000958B848B809158028F5F80935802D1CF63
:1009000080E0DBCF0FB6F8940F9280919301909125
:1009100094010F900FBE089580918D018F5F809399
:100920008D0108950FB6F8940F92FC01928D0F90EF
:100930000FBE81E0911180E00895EF92FF920F9336
:100940001F93CF93DF93EC010FB6F8940F921E8D97
:100950007C0181E1E80EF11C01E01116D4F08FEF6B
:100960008E8F0F900FBE0FB6F8940F921D8D7E01E3
:1009700088E0E80EF11C01E01116B4F08FEF8D8FC6
:100980000F900FBEDF91CF911F910F91FF90EF90CD
:1009900008958989882319F3C7010E94DD03811115
:1009A00000938C011150D9CF8885882339F3C70172
:1009B0000E94DD03811100938C011150DDCFCF9394
:1009C000DF93FC01A085B1858281938124813581EB
:1009D000EC013D832C83C481D5819B838A8311964E
:1009E0008D919C9112978E179F0721F41296DC939C
:1009F000CE931197118610868C9181508C93DF9144
:100A0000CF9108950F931F93CF93DF938C01FB0138
:100A100080819181D80113968F3F9807F1F4E80106
:100A2000AF81B88512968D919C91139793838283A1
:100A3000EC01FD83EC83B583A4831396FC93EE93C2
:100A4000129711870087F80180818F5F8083DF9183
:100A5000CF911F910F910895D90112962D913C913C
:100A60001397E9014881598184179507A8F7DACFD0
:100A7000FC0173836283918780874617570790F044
:100A8000421B530B8485958548175907C8F4BF014D
:100A90006E5F7F4F80919801909199010E940205AD
:100AA00080E008954217530718F46217730740F463
:100AB000BF016E5F7F4F80919A0190919B01EECFB5
:100AC00081E00895EF92FF920F931F93CF93DF93EE
:100AD000EC018B017A016C857D85600F711F980197
:100AE000A701CE010E943805811107C0DF91CF9187
:100AF0001F910F91FF90EF9008958C859D85080FB1
:100B0000191FE889F989CE010995E5CFEF92FF9287
:100B10000F931F93CF93DF938C017B01E0919A0198
:100B2000F0919B010580F681E02DC681D781CE0131
:100B300002960E94DF048A8982FF0FC0A701B801D4
:100B4000CE010E946205E889F989CE01DF91CF913B
:100B50001F910F91FF90EF9009948E7F8A8BF3CFB6
:100B6000E0919A01F0919B01808181110DC08091EB
:100B700098019091990190939B0180939A01F09331
:100B80009901E093980108950580F681E02D6FEFBB
:100B90007FEF808191810E948605E2CFBF92CF9244
:100BA000DF92EF92FF920F931F93CF93DF93EC01AD
:100BB000B62EC0909301D090940100914402109100
:100BC0004502E0904202F090430280919A02909197
:100BD0009B0202960E94DF04CF3FDC0709F042C06F
:100BE000BB2009F43FC0E0914702F0914802A09178
:100BF0009A02B0919B021596FC93EE931497A091E4
:100C00009A02B0919B028481958117969C938E9352
:100C1000169780919A0290919B02A481B5810296C9
:100C200013969C938E93129780919A0290919B02B7
:100C3000029695838483E0919A02F0919B0286E468
:100C400092E093878287809146028F5F809346026D
:100C5000DF91CF911F910F91FF90EF90DF90CF9098
:100C6000BF900895CC0DDD1DE0919A02F0919B029A
:100C7000D383C28360919A0270919B026E5F7F4F13
:100C8000CC15DD0560F4C701DF91CF911F910F9165
:100C9000FF90EF90DF90CF90BF900C940205C801B9
:100CA0000E94020580918F0190919001C817D90789
:100CB00078F6D0939001C0938F01CACFFC010396C0
:100CC000928381832FEF3FEF348323839683858341
:100CD00090878783108208950F920FB6F8940F9231
:100CE0001F9211242F923F924F925F926F927F92A8
:100CF0008F929F92AF92BF92CF92DF92EF92FF922C
:100D00000F931F932F933F934F935F936F937F9313
:100D10008F939F93AF93BF93CF93DF93EF93FF9303
:100D2000A0919A02B0919B020DB60D920EB60D9253
:100D300080918D01882321F081E080938C0161C036
:100D400010928C01A0919A02B0919B02E0919A02BC
:100D5000F0919B022D913C918789908D821793078A
:100D6000A8F080919A0290919B0280919A029091B2
:100D70009B02259A2D9A2FEF87EA91E62150804019
:100D80009040E1F700C000001D9AF5CF2091970236
:100D900089E001C02150422F50E0849FF001859FDF
:100DA000F00D1124ED58FD4F9081992399F3A18105
:100DB000B28112966D917C9172836183289FC001EC
:100DC00011248A589D4F6817790721F485819681EF
:100DD0009283818389E0849FF001859FF00D112427
:100DE000ED58FD4F0180F281E02D8681978190932F
:100DF0009B0280939A022093970280919A0290918D
:100E00009B02A0919A02B0919B02CD91CDBFDD9142
:100E1000DEBFFF91EF91DF91CF91BF91AF919F9195
:100E20008F917F916F915F914F913F912F911F9182
:100E30000F91FF90EF90DF90CF90BF90AF909F9079
:100E40008F907F906F905F904F903F902F901F906A
:100E50000F900FBE0F9008958F929F92BF92CF92E6
:100E6000DF92EF92FF920F931F93CF93DF930FB612
:100E7000F8940F9280918D01815080938D01809123
:100E80008D01882379F080E00F900FBEDF91CF9124
:100E90001F910F91FF90EF90DF90CF90BF909F90A8
:100EA0008F90089580919C02882369F3E0905D0201
:100EB000F0905E02F0E0E0E039E041E0809158021D
:100EC00081115EC0EF2B11F00E94C503E0908A01F2
:100ED000F0908B01E114F10409F47DC189E0D82E72
:100EE000CC24C3940FEF1FEF80918D01811161C15C
:100EF000C0919301D09194014E018FEF881A980A06
:100F0000909294018092930181149104B9F480919C
:100F10004402909145022091420230914302309365
:100F200045022093440290934302809342028091B1
:100F300095018F5F809395010E94C50380918F0179
:100F400090919001B12C8816990608F026C1E09185
:100F50009A02F0919B02E689DE9EF0011124ED5881
:100F6000FD4F8081823010F0BB24B39480918C01BE
:100F7000811103C0BB2009F425C1C0928C0122C19C
:100F8000D7011696ED91FC91A489B5896685778580
:100F900080899189EB019D838C8380899189EC0103
:100FA0007B836A83BF01645F7F4F11960D911C9113
:100FB00012970617170721F412969C938E93119798
:100FC000158A148A8C9181508C93A285B385848173
:100FD000958166817781EC017D836C836681778161
:100FE000EB019B838A83CF01029611960D911C9190
:100FF00012970817190721F412967C936E93119794
:10100000138612862C9121502C93A6892091970249
:101010002A1710F4A09397023A9FD0011124AD58DB
:10102000BD4F11960D90BC91A02DB583A48314964D
:101030006D917C9115977783668314966D917C9161
:101040001597EB019B838A8315969C938E93149737
:101050009689939FD0011124AD58BD4FB387A287C5
:101060008C918F5F8C93A0919A02B0919B025696BF
:101070008C91891708F022CF40938C011FCFE0910B
:101080004402F09145020580F681E02D0680F7814B
:10109000E02D828193818816990628F4909390011F
:1010A00080938F0154CFC285D38584819581268119
:1010B0003781DC0115963C932E9314972681378156
:1010C000D90113969C938E931297CF010296498172
:1010D0005A814817590711F43A83298313861286D7
:1010E000288121502883A489B5891097F9F0268595
:1010F000378540895189E9015D834C834089518955
:10110000EA013B832A8311966D917C9112979F018E
:10111000245F3F4F6217730721F412965C934E933E
:101120001197158A148A2C9121502C93A68920910D
:1011300097022A1710F4A0939702DA9ED001112487
:10114000AD58BD4F11960D90BC91A02DB583A483D1
:1011500014962D913C9115973783268314962D91E3
:101160003C911597E9019B838A8315969C938E93F6
:10117000149796899D9DD0011124AD58BD4FB3871A
:10118000A2878C918F5F8C93E0919A02F0919B02E1
:101190008689891710F4BB24B394E0914402F0913E
:1011A0004502808181116BCF1093900100938F01D4
:1011B000CECE80918A0190918B01019690938B0104
:1011C00080938A01D1E0ED1AF10809F08DCE1092DA
:1011D0008B0110928A0180918C01882309F453CEEF
:1011E00080919A0290919B020E946C0681E04CCE05
:1011F000CF93DF93EC01892B29F40E946C06DF91D9
:10120000CF9108950E948C0460E0CE010E94CE052B
:101210000E942C07882389F3F2CF0F920FB6F8941F
:101220000F921F9211242F923F924F925F926F92D2
:101230007F928F929F92AF92BF92CF92DF92EF9266
:10124000FF920F931F932F933F934F935F936F934F
:101250007F938F939F93AF93BF93CF93DF93EF933E
:10126000FF93A0919A02B0919B020DB60D920EB61B
:101270000D9213BE80918D018111F9C0809193016F
:10128000909194010196909394018093930100971B
:1012900081F52091440230914502409142025091E3
:1012A00043025093450240934402309343022093FB
:1012B0004202209195012F5F20939501E091440215
:1012C000F09145022081211107C02FEF3FEF3093AD
:1012D000900120938F010DC0E0914402F0914502EE
:1012E0000580F681E02D208131813093900120939B
:1012F0008F0120918F01309190018217930710F494
:1013000020E0A1C020E039E0D32EE0914402F0912A
:1013100045023081311107C08FEF9FEF909390010C
:1013200080938F0190C0E0914402F09145020580C6
:10133000F681E02D0680F781E02D428153818417EC
:10134000950728F45093900140938F017CC0A285AB
:10135000B3854481558166817781EA017D836C8301
:1013600066817781EB015B834A83AF014E5F5F4FFC
:1013700011960D911C9112970417150721F41296DE
:101380007C936E931197138612863C9131503C9357
:10139000A489B5891097F9F0668577850089118948
:1013A000EB011D830C8300891189E8017B836A832B
:1013B0001196ED90FC901297BF01645F7F4FE61687
:1013C000F70621F412961C930E931197158A148A2E
:1013D0003C9131503C93A689309197023A1710F412
:1013E000A0939702DA9ED0011124AD58BD4F1196FB
:1013F0000D90BC91A02DB583A48314966D917C9122
:1014000015977783668314966D917C911597EB0100
:101410005B834A8315965C934E93149746894D9D42
:10142000D0011124AD58BD4FB387A2873C913F5FD7
:101430003C93E0919A02F0919B023689341708F0B0
:1014400064CF21E062CFE0919A02F0919B02E6899D
:10145000D9E0ED9FF0011124ED58FD4F80818230DD
:1014600008F021E080918C0181110EC00AC08091AA
:101470008A0190918B01019690938B0180938A0150
:101480006CC0222309F469C080918D01882321F06A
:1014900081E080938C0161C010928C01A0919A022E
:1014A000B0919B02E0919A02F0919B022D913C91A8
:1014B0008789908D82179307A8F080919A02909166
:1014C0009B0280919A0290919B02259A2D9A2FEF70
:1014D00087EA91E6215080409040E1F700C000008B
:1014E0001D9AF5CF2091970289E001C02150422F2B
:1014F00050E0849FF001859FF00D1124ED58FD4FC1
:101500009081992399F3A181B28112966D917C917A
:1015100072836183289FC00111248A589D4F6817E8
:10152000790721F4858196819283818389E0849F64
:10153000F001859FF00D1124ED58FD4F0180F281DF
:10154000E02D8681978190939B0280939A0220934D
:10155000970280919A0290919B02A0919A02B09179
:101560009B02CD91CDBFDD91DEBFFF91EF91DF9169
:10157000CF91BF91AF919F918F917F916F915F912B
:101580004F913F912F911F910F91FF90EF90DF901E
:10159000CF90BF90AF909F908F907F906F905F9013
:1015A0004F903F902F901F900F900FBE0F90089577
:1015B000CF93DF93009751F0EC010E948C04CE0191
:1015C0000E94E80FDF91CF910C942C07DF91CF910F
:1015D0000895CF93DF9300D000D01F92CDB7DEB730
:1015E00085E0B82ECE0101967C01E0919A01F09140
:1015F0009B011081D12CC12C112329F00580F6818B
:10160000E02DC080D1800E948C040E9482044C0195
:1016100080919101909192018816990608F089C0F5
:101620000E94B00590929201809291010E942C0735
:10163000D701EB2D1D92EA95E9F7009196011091E3
:1016400097010FB6F8940F92D8015A96DC905A97EA
:10165000DD2009F42FC15C964C915C974423F9F08E
:1016600050E016968D919C911797840F951F1796B1
:101670009C938E93169714962D913C9115978217F3
:10168000930738F08D919C91119717969C938E93A8
:101690001697F80166817781C7010E947710DA9466
:1016A000D8015A96DC925A9718968C91882339F073
:1016B000C80108960E94DD0381110E946C060F90FC
:1016C0000FBEA980A7FCB9CF0C811D81D8011A9645
:1016D0008D919C91892B21F0C80102960E94DF0414
:1016E0000E9482046C018091910190919201C81630
:1016F000D90610F40E94B005D0929201C0929101D7
:10170000EFEFEA0DE93008F098CF0E2E000CFF0B3A
:10171000E057F44FD80152968C9152970C94711067
:10172000130C130C560C3E0C500C130C130C560CD3
:101730003E0C9092920180929101112351F08C14F1
:101740009D0470F00E942C07B401C6010E9486051A
:101750006FCFE0919801F091990161E08081811152
:1017600060E000919601109197010FB6F8940F92E6
:10177000D8015D968C915D978F3F11F45D961C9218
:10178000F801868D8F3F09F4168E0F900FBED80199
:101790005A968C915A9781113CC05296ED91FC91CA
:1017A000A0919A02B0919B021F96FC93EE931E9714
:1017B000A0919A02B0919B028481958151969C934D
:1017C0008E93509780919A0290919B02A481B5814B
:1017D0000C9613969C938E93129780919A029091F7
:1017E0009B020C9695838483E0919A02F0919B0270
:1017F000C8014196958B848BF80181898F5F818B1D
:10180000C60188199909662311F08FEF9FEF0E9496
:10181000CE05C8010E949D040E942C07811108CFAB
:101820000E946C0605CF8160F801828B8A809B80C4
:1018300064857585680D791D9401A601C8010E9413
:101840003805882309F4F9CED80152968C91529725
:1018500082FF10C01C966D917C91680D791DA601C8
:10186000C8010E946205D8015096ED91FC91C80113
:101870000995E3CE8E7FF801828BF5CF8160529679
:101880008C9352976A817B811D967C936E931C97F3
:101890006C0D7D1D9601A601C8010E943805CDCEB4
:1018A00081FD04C0C8010E94D80AC7CE8E7FF8010E
:1018B000828BC3CE0F900FBE98CE00E010E08091D7
:1018C0008E0181110CC080917302823010F00E9451
:1018D0006C060115110599F30E94AC01F0CF0FB60B
:1018E000F8940F92E0915402F0915502C681D7818D
:1018F000CE0102960E94DF0480919C028150809369
:101900009C0280918E01815080938E010F900FBEBA
:101910008F89988D0E94D80ACE010E94D80ACFCF15
:10192000CF93DF93EC010E948C04CE010E944C0FF8
:10193000EC010E942C07209769F4259A2D9A2FEF2D
:1019400080E792E0215080409040E1F700C0000025
:101950001D9AF5CFCE01DF91CF9108957F928F929E
:101960009F92AF92BF92CF92DF92EF92FF920F932E
:101970001F93CF93DF93982EA92E762E872E7A0170
:10198000B22ECA010E94900C6C01892B09F4EDC0A3
:1019900080E390E00E94900CEC01892B09F4E2C0F6
:1019A00080E3DE011D928A95E9F7D88ECF8AA701E0
:1019B00065EA70E0C6010E948010B1E0EB1AF10800
:1019C000EF89F88DEE0DFF1D672D782DCE0149961C
:1019D0009B01205F3F4FDB014D91BD01DC014D9329
:1019E000CD01AB0141505109DA014C91442319F06A
:1019F0002617370781F718A6BE8AB9A61B861A864E
:101A00001D8A1C8AD987C88784E090E08B199109C8
:101A10009D878C87DB8BCA8B9082DF011197AC92FC
:101A200011971C92119780E88C9311971C925797ED
:101A30001C9211971C92B397F983E8830115110545
:101A400019F0F801D183C0830FB6F8940F928091FA
:101A50009C028F5F80939C0280919A0290919B02DE
:101A6000892B09F091C0D0939B02C0939A02809178
:101A70009C02813081F583E792E00E945E068CE74C
:101A800092E00E945E0685E892E00E945E068EE883
:101A900092E00E945E068AE692E00E945E0681E67F
:101AA00092E00E945E0688E592E00E945E068FE466
:101AB00092E00E945E0686E492E00E945E068AE65C
:101AC00092E0909345028093440281E692E09093E5
:101AD000430280934202809198028F5F8093980224
:101AE000AE89809197028A1710F4A093970229E09B
:101AF0002A9FD0011124AD58BD4F11960D90BC9175
:101B0000A02DBD83AC8314968D919C9115979F83D6
:101B10008E831496ED91FC911597CE0102969383D6
:101B2000828315969C938E931497EE89E29FF00121
:101B30001124ED58FD4FFB87EA8780818F5F8083FA
:101B40000F900FBE80919902882351F0E0919A0284
:101B5000F0919B0296898E89981710F40E946C066A
:101B600081E004C0C6010E94D80A8FEFDF91CF91B7
:101B70001F910F91FF90EF90DF90CF90BF90AF90AB
:101B80009F908F907F900895809199028111A3CFAB
:101B9000E0919A02F0919B0296898E89891708F448
:101BA0009ACFD0939B02C0939A0295CF0F931F9325
:101BB000CF93DF93CDB7DEB760970FB6F894DEBF53
:101BC0000FBECDBFA9E1B1E0FE01319629E231E0BF
:101BD000BF018D918193882319F02A173B07C9F71C
:101BE00004E711E020E040EC50E08DE59CE00E942D
:101BF000AE0C882309F4B7C0813009F0B4C00FB629
:101C0000F8940F928091960190919701892B09F099
:101C100050C08FE791E00E945E0686E791E00E9447
:101C20005E068FE791E090939B0180939A0186E78F
:101C300091E0909399018093980181E590E00E9452
:101C4000900C8C01009789F14F96F8019183808365
:101C50008AE0838F85E0848F0FB6F8940F9280819D
:101C60009181238D448DBC01249F600D711D112431
:101C700075836483128E938382832150330B429F3A
:101C8000B001439F700D1124860F971F97838683A1
:101C90008FEF858F868FC80108960E945E06C80167
:101CA00041960E945E060F900FBE1093970100931D
:101CB00096010F900FBE8091960190919701892B0C
:101CC00009F451C008E811E023E04CE550E06EE172
:101CD00071E089EE9AE00E94AE0C813009F043C0B9
:101CE000F8942FEF3FEF3093900120938F01809372
:101CF00099021092940110929301A89588E190ECBA
:101D00000FB6F894A895809360000FBE9093600082
:101D1000A0919A02B0919B02CD91CDBFDD91DEBF23
:101D2000FF91EF91DF91CF91BF91AF919F918F91F3
:101D30007F916F915F914F913F912F911F910F91E3
:101D4000FF90EF90DF90CF90BF90AF909F908F90DB
:101D50007F906F905F904F903F902F901F900F90CB
:101D60000FBE0F9008958091000160960FB6F89411
:101D7000DEBF0FBECDBFDF91CF911F910F910895B0
:101D80000E940D091895789484B5826084BD84B54D
:101D9000816084BD85B5826085BD85B5816085BD66
:101DA00080916E00816080936E001092810080911E
:101DB00081008260809381008091810081608093A6
:101DC0008100809180008160809380008091B100CB
:101DD00084608093B1008091B00081608093B000F6
:101DE00080917A00846080937A0080917A0082608A
:101DF00080937A0080917A00816080937A0080914C
:101E00007A00806880937A001092C10020910501C9
:101E1000309106018FEF98E0821B930B90930201A3
:101E2000809301010E9470020E94D60D0E947002F0
:101E3000C0E0D0E02097F1F30E94AC01FBCFECE9C9
:101E4000F1E01382128288EE93E0A0E0B0E0848398
:101E50009583A683B7838BE091E09183808385ECA3
:101E600090E09587848784EC90E09787868780EC64
:101E700090E0918B808B81EC90E0938B828B82EC55
:101E800090E0958B848B86EC90E0978B868B118EFF
:101E9000128E138E148E08950F931F93CF93DF939A
:101EA0008230910510F482E090E0E0919F02F09181
:101EB000A00230E020E0B0E0A0E0309799F42115D6
:101EC000310509F44AC0281B390B24303105D8F5F7
:101ED0008A819B816115710589F1FB01938382835E
:101EE000FE0111C0408151810281138148175907B9
:101EF000E0F04817590799F4109761F012960C9387
:101F0000129713961C933296CF01DF91CF911F91B8
:101F10000F91089500939F021093A002F4CF211512
:101F2000310551F04217530738F0A901DB019A013E
:101F3000BD01DF01F801C1CFEF01F9CF9093A002FD
:101F400080939F02CDCFFE01E20FF31F8193919307
:101F50002250310939832883D7CF20919D023091B7
:101F60009E02232B41F42091030130910401309310
:101F70009E0220939D0220910101309102012115C2
:101F8000310541F42DB73EB740910501509106014E
:101F9000241B350BE0919D02F0919E02E217F3079E
:101FA000A0F42E1B3F0B2817390778F0AC014E5FC9
:101FB0005F4F2417350748F04E0F5F1F50939E0266
:101FC00040939D02819391939FCFF0E0E0E09CCFFE
:101FD000CF93DF930097E9F0FC01329713821282CE
:101FE000A0919F02B091A002ED0130E020E0109797
:101FF000A1F420813181820F931F20919D023091A5
:102000009E022817390709F061C0F0939E02E09301
:102010009D02DF91CF910895EA01CE17DF07E8F521
:102020004A815B819E0141155105B1F7E901FB83AE
:10203000EA8349915991C40FD51FEC17FD0761F44C
:10204000808191810296840F951FE901998388838D
:10205000828193819B838A83F0E0E0E012968D91E8
:102060009C9113970097B9F52D913C911197CD0153
:102070000296820F931F20919D0230919E02281795
:10208000390739F6309751F51092A00210929F024D
:10209000B0939E02A0939D02BCCFD383C2834081A4
:1020A0005181840F951FC817D90761F44E5F5F4FA8
:1020B00088819981480F591F518340838A819B8170
:1020C000938382832115310509F0B0CFF093A002EC
:1020D000E0939F029ECFFD01DC01C0CF13821282EC
:1020E000D7CFEE0FFF1F0590F491E02D0994FB016F
:1020F000DC0102C001900D9241505040D8F7089584
:10210000DC0101C06D9341505040E0F70895F89410
:10211000FFCF030000A102800000000000DB0138B7
:10212000016501280296017401880149444C45006B
:10213000546D72205376630052656164207075732C
:102140006820627574746F6E2073776974636800B9
:10215000526564204C4544205461736B004772659E
:10216000656E204C4544205461736B0059656C6C5E
:102170006F77204C4544205461736B005900470031
:0221800052000B
:107E0000112484B714BE81FFF0D085E080938100F7
:107E100082E08093C00088E18093C10086E0809377
:107E2000C20080E18093C4008EE0C9D0259A86E02C
:107E300020E33CEF91E0309385002093840096BBD3
:107E4000B09BFECF1D9AA8958150A9F7CC24DD24C4
:107E500088248394B5E0AB2EA1E19A2EF3E0BF2EE7
:107E6000A2D0813461F49FD0082FAFD0023811F036
:107E7000013811F484E001C083E08DD089C08234E0
:107E800011F484E103C0853419F485E0A6D080C0E4
:107E9000853579F488D0E82EFF2485D0082F10E0AE
:107EA000102F00270E291F29000F111F8ED06801E7
:107EB0006FC0863521F484E090D080E0DECF843638
:107EC00009F040C070D06FD0082F6DD080E0C81688
:107ED00080E7D80618F4F601B7BEE895C0E0D1E017
:107EE00062D089930C17E1F7F0E0CF16F0E7DF06D8
:107EF00018F0F601B7BEE89568D007B600FCFDCFD4
:107F0000A601A0E0B1E02C9130E011968C91119780
:107F100090E0982F8827822B932B1296FA010C0160
:107F200087BEE89511244E5F5F4FF1E0A038BF0790
:107F300051F7F601A7BEE89507B600FCFDCF97BE46
:107F4000E89526C08437B1F42ED02DD0F82E2BD052
:107F50003CD0F601EF2C8F010F5F1F4F84911BD097
:107F6000EA94F801C1F70894C11CD11CFA94CF0C13
:107F7000D11C0EC0853739F428D08EE10CD085E9AC
:107F80000AD08FE07ACF813511F488E018D01DD067
:107F900080E101D065CF982F8091C00085FFFCCF94
:107FA0009093C60008958091C00087FFFCCF809118
:107FB000C00084FD01C0A8958091C6000895E0E648
:107FC000F0E098E1908380830895EDDF803219F02E
:107FD00088E0F5DFFFCF84E1DECF1F93182FE3DFCA
:107FE0001150E9F7F2DF1F91089580E0E8DFEE27F6
:047FF000FF270994CA
:027FFE00040479
:00000001FF
