:100000000C9434000C9449000C9449000C944B005F
:100010000C9449000C9449000C9449000C9449003C
:100020000C9449000C9449000C9449000C9449002C
:100030000C9449000C9449000C9449000C9449001C
:100040000C9449000C9449000C9449000C9449000C
:100050000C9449000C9449000C9449000C944900FC
:100060000C9449000C94490011241FBECFEFD8E036
:10007000DEBFCDBF11E0A0E0B1E0EEE1F1E002C0F3
:1000800005900D92A031B107D9F70E9471000C9430
:100090008D000C9400001F920F920FB60F92112446
:1000A0008F939F93EF93FF9380EF84B987B18F6312
:1000B00087B9249AE3B1EF70F0E0E050FF4F808100
:1000C000982F909598B986FF0AC02C98FF91EF91D0
:1000D0009F918F910F900FBE0F901F9018952C9AA3
:1000E000F5CF789481E0809368008FE080936B0077
:1000F00080EF84B987B18F6387B9249AE3B1EF7039
:10010000F0E0E050FF4F8081982F909598B986FFDE
:0E01100002C02C98FFCF2C9AFDCFF894FFCFA1
:10011E00C0F9A4B0999282F880908883C6A1868E89
:00000001FF
