S00E0000636865636B322E73726563E6
S11300000C9452000C945C000C945C000C945C0006
S11300100C945C000C945C000C945C000C945C00EC
S11300200C945C000C945C000C945C000C945C00DC
S11300300C945C000C945C000C945C000C945C00CC
S11300400C945C000C945C000C945C000C945C00BC
S11300500C945C000C945C000C945C000C945C00AC
S11300600C945C000C945C0086006A006C006E00CA
S1130070700072007400760078007A007C007E00C4
S1130080800082008400930099009F00A500AB00CB
S1130090B100B700BD00C300C900CF00D500DB002C
S11300A0E100E70011241FBECFEFD8E0DEBFCDBFD3
S11300B00E94F3000C9426010C94000090E0FC01D3
S11300C03197EF30F10520F4EC5CFF4F0C942001E4
S11300D080E0089582E0089583E0089584E008951F
S11300E085E0089586E0089587E0089588E00895FE
S11300F089E008958AE008958BE008958CE00895DE
S11301008DE008958EE008958FE0089581E00895CC
S113011090E0FC013197EF30F10508F05EC0ED5B33
S1130120FF4F0C94200186E088B985B18E7F85B994
S113013008958BE588B985B1816085B908958FE408
S113014088B985B1816085B9089586E688B985B195
S1130150816085B908958DE688B985B1816085B9D6
S113016008958DE788B985B1816085B9089587E0E0
S113017088B985B18E7F85B908958FE788B985B12F
S1130180816085B908958FE688B985B1816085B9A4
S1130190089587E788B985B1816085B908958CE7AA
S11301A088B985B1816085B9089589E388B985B135
S11301B08E7F85B908958EE588B985B1816085B94A
S11301C0089589E788B985B1816085B9089581E783
S11301D088B985B1816085B908958FE388B985B1FF
S11301E08E7F85B908951AB88FE084B98FE387B9F3
S11301F089B1D82FD295DF708F700E945E00C82F0E
S11302008D2F0E945E00C81306C084E085B98C2F30
S11302100E9488000EC0C81730F492E095B98C1B78
S11302200E94880006C098E095B9C81B8C2F0E94D4
S113023088008FE295E70197F1F700C00000D8CF5E
S1130240EE0FFF1F0590F491E02D0994F894FFCF71
S9030000FC
