:020000040000FA
:100000000C9435000C945D000C945D000C945D0024
:100010000C945D000C945D000C945D000C945D00EC
:100020000C945D000C945D000C945D000C945D00DC
:100030000C945D000C945D000C945D000C945D00CC
:100040000C94ED010C945D000C945D020C9437024D
:100050000C945D000C945D000C945D000C945D00AC
:100060000C945D000C945D00040411241FBECFEFBE
:10007000D8E0DEBFCDBF12E0A0E0B1E0E6EBF8E0F3
:1000800002C005900D92A230B107D9F722E0A2E09C
:10009000B2E001C01D92A83AB207E1F710E0C5E353
:1000A000D0E004C02197FE010E945304C433D1075D
:1000B000C9F70E948F020C9459040C940000AF926F
:1000C000BF92CF92DF92EF92FF920F931F93CF9345
:1000D000DF936C017B018B01040F151FEB015E01A7
:1000E000AE18BF08C017D10759F06991D601ED913C
:1000F000FC910190F081E02DC6010995892B79F7DB
:10010000C501DF91CF911F910F91FF90EF90DF908C
:10011000CF90BF90AF900895FC01538D448D252F53
:1001200030E0842F90E0821B930B541710F0CF9691
:10013000089501970895FC01918D828D981761F0C3
:10014000A28DAE0FBF2FB11D5D968C91928D9F5FDA
:100150009F73928F90E008958FEF9FEF0895FC01B9
:10016000918D828D981731F0828DE80FF11D858D6C
:1001700090E008958FEF9FEF0895FC01918D228DFF
:10018000892F90E0805C9F4F821B91098F73992784
:1001900008958BE092E00E94BD0021E0892B09F4D4
:1001A00020E0822F089580E090E0892B29F00E94C2
:1001B000C90081110C9400000895FC01A48DA80FC2
:1001C000B92FB11DA35ABF4F2C91848D90E0019699
:1001D0008F739927848FA689B7892C93A089B189B9
:1001E0008C91837080648C93938D848D981306C05A
:1001F0000288F389E02D80818F7D80830895EF92BE
:10020000FF920F931F93CF93DF93EC0181E0888FD0
:100210009B8D8C8D98131AC0E889F989808185FFA0
:1002200015C09FB7F894EE89FF896083E889F98942
:1002300080818370806480839FBF81E090E0DF9144
:10024000CF911F910F91FF90EF900895F62E0B8D97
:1002500010E00F5F1F4F0F731127E02E8C8D8E1152
:100260000CC00FB607FCFACFE889F989808185FFB9
:10027000F5CFCE010E94DD00F1CFEB8DEC0FFD2F0D
:10028000F11DE35AFF4FF0829FB7F8940B8FEA8974
:10029000FB8980818062CFCFCF93DF93EC01888D83
:1002A0008823B9F0AA89BB89E889F9898C9185FDF1
:1002B00003C0808186FD0DC00FB607FCF7CF8C917F
:1002C00085FFF2CF808185FFEDCFCE010E94DD005A
:1002D000E9CFDF91CF910895F999FECF92BD81BD0D
:1002E000F89A80B50895F999FECF20E22FBB92BD10
:1002F00081BD60BD8FB7F894FA9AF99A8FBF0895BF
:10030000F999FECF20E12FBB92BD81BD8FEF80BD5B
:100310008FB7F894FA9AF99A8FBF0895FC0101906B
:100320000020E9F73197AF01481B590BBC018BE066
:1003300092E00C945F008F929F92AF92BF920F93C6
:100340001F93CF93DF93CDB7DEB7A1970FB6F89485
:10035000DEBF0FBECDBF19A2423008F44AE08E01C5
:100360000F5D1F4F842E912CB12CA12CA50194015F
:100370000E943104E62FB901CA01EA30F4F4E05DCD
:10038000D801EE938D01232B242B252B79F790E0B8
:1003900080E0109719F0CD010E948E01A1960FB652
:1003A000F894DEBF0FBECDBFDF91CF911F910F91AB
:1003B000BF90AF909F908F900895E95CE1CFCF936D
:1003C000DF930E948E01EC0182E191E00E948E0198
:1003D0008C0F9D1FDF91CF9108951F920F920FB642
:1003E0000F9211242F933F938F939F93AF93BF93BB
:1003F0008091070290910802A0910902B0910A022F
:100400003091060223E0230F2D3758F50196A11DE8
:10041000B11D209306028093070290930802A093D7
:100420000902B0930A028091020290910302A09106
:100430000402B09105020196A11DB11D8093020234
:1004400090930302A0930402B0930502BF91AF9171
:100450009F918F913F912F910F900FBE0F901F9002
:10046000189526E8230F0296A11DB11DD2CF1F9229
:100470000F920FB60F9211242F933F934F935F93D8
:100480006F937F938F939F93AF93BF93EF93FF935C
:100490008BE092E00E94DD00FF91EF91BF91AF9160
:1004A0009F918F917F916F915F914F913F912F918C
:1004B0000F900FBE0F901F9018951F920F920FB6BE
:1004C0000F9211242F938F939F93EF93FF93E091BB
:1004D0001B02F0911C028081E0912102F091220226
:1004E00082FD1BC09081809124028F5F8F732091C9
:1004F0002502821741F0E0912402F0E0E55FFD4F14
:10050000958F80932402FF91EF919F918F912F916E
:100510000F900FBE0F901F9018958081F4CFCF934E
:10052000DF9300D000D000D0CDB7DEB7789484B58B
:10053000826084BD84B5816084BD85B5826085BDDF
:1005400085B5816085BD80916E00816080936E006D
:10055000109281008091810082608093810080915F
:100560008100816080938100809180008160809310
:1005700080008091B10084608093B1008091B000D0
:1005800081608093B00080917A00846080937A00CB
:1005900080917A00826080937A0080917A008160F5
:1005A00080937A0080917A00806880937A0010921C
:1005B000C100E0911B02F0911C0282E08083E09177
:1005C0001702F09118021082E0911902F0911A02BC
:1005D00083E3808310922302E0911F02F0912002B6
:1005E00086E08083E0911D02F0911E02808180618F
:1005F0008083E0911D02F0911E02808188608083DB
:10060000E0911D02F0911E02808180688083E0915C
:100610001D02F0911E0280818F7D808385E191E033
:100620000E94DF0110E000E0C8010E946C01F82E7A
:100630000115110549F0C8018F709927892B21F404
:1006400084E191E00E94DF016F2D70E090E080E096
:100650004AE00E949B018EEB91E00E948E010F5FA9
:100660001F4F011524E01207F9F688E291E00E947D
:10067000DF0185E491E00E94DF01C12CD12C7601DD
:1006800010E000E0C6010E946C018F3F21F10330B1
:1006900011056CF4F801EE0FFF1F21E030E02C0F84
:1006A0003D1FE20FF31FD182C0820F5F1F4F682FE3
:1006B00070E090E080E040E10E949B0183E691E0E1
:1006C0000E948E014AE0C701B6010E949B0181E8A9
:1006D00091E00E94DF013FEFC31AD30AE30AF30A55
:1006E000C11484E0D806E104F10461F60430110578
:1006F00074F083E891E00E94DF018E010F5F1F4FCD
:10070000F801819191918F010E948001F9CF03300E
:10071000110509F05FC08CEA91E00E948E01098109
:100720001A81B80190E080E04AE00E949B018DEBC5
:1007300091E00E948E01EB80FC80B70190E080E0A8
:100740004AE00E949B018DEB91E00E948E01CD80DA
:10075000DE80B60190E080E04AE00E949B0182E1E9
:1007600091E00E948E01C8010E946C01B82EC70161
:100770000E946C01A82EC6010E946C018F3041F4CA
:10078000C6010E9480016FE0C60103970E947301B9
:10079000FEECAF1208C0C7010E9480016EECC701D9
:1007A00003970E9473012AEFB21208C0C8010E9489
:1007B00080016AEFC80103970E94730100E010E016
:1007C00001151105E9F30E94C9008823C9F30E94AD
:1007D0000000F6CF012B91F780EC91E00E94DF0141
:1007E0006FE08FEF93E00E9473016EEC8EEF93E069
:1007F0000E9473016AEF8DEF93E00E94730188ED10
:1008000091E00E94DF01DACFEBE0F2E01382128286
:1008100088EE93E0A0E0B0E084839583A683B7835D
:1008200084E091E09183808385EC90E095878487D4
:1008300084EC90E09787868780EC90E0918B808BAA
:1008400081EC90E0938B828B82EC90E0958B848B93
:1008500086EC90E0978B868B118E128E138E148E01
:100860000895A1E21A2EAA1BBB1BFD010DC0AA1FF1
:10087000BB1FEE1FFF1FA217B307E407F50720F009
:10088000A21BB30BE40BF50B661F771F881F991F84
:100890001A9469F760957095809590959B01AC01CD
:1008A000BD01CF010895EE0FFF1F0590F491E02DDB
:1008B0000994F894FFCF00000000FF005F008C0057
:1008C0004C01BD009B00AF000D0A00446174612023
:1008D000696E2074686520454550524F4D000A0DE1
:1008E0002D2D2D2D2D2D2D2D2D2D2D2D2D2D2D2D38
:1008F0002D2D2D2D2D2D2D2D2D2D00506572666F3A
:10090000726D696E6720454550524F4D207363618B
:100910006E6E696E672E2E2E0020697320666F75CD
:100920006E6420696E20454550524F4D206C6F63B8
:100930006174696F6E5B005D004D6F726520746855
:10094000616E2074687265652064617461206172F3
:100950006520666F756E6420696E20454550524F64
:100960004D0044617461206C6F636174696F6E73D4
:100970003A20002C20004E6F206461746120666F65
:10098000756E6420696E20454550524F4D00446598
:100990006661756C742076616C756573206861762C
:1009A00065206265656E20616464656420746F20F3
:0809B000454550524F4D000077
:107E0000112484B714BE81FFF0D085E080938100F7
:107E100082E08093C00088E18093C10086E0809377
:107E2000C20080E18093C4008EE0C9D0259A86E02C
:107E300020E33CEF91E0309385002093840096BBD3
:107E4000B09BFECF1D9AA8958150A9F7CC24DD24C4
:107E500088248394B5E0AB2EA1E19A2EF3E0BF2EE7
:107E6000A2D0813461F49FD0082FAFD0023811F036
:107E7000013811F484E001C083E08DD089C08234E0
:107E800011F484E103C0853419F485E0A6D080C0E4
:107E9000853579F488D0E82EFF2485D0082F10E0AE
:107EA000102F00270E291F29000F111F8ED06801E7
:107EB0006FC0863521F484E090D080E0DECF843638
:107EC00009F040C070D06FD0082F6DD080E0C81688
:107ED00080E7D80618F4F601B7BEE895C0E0D1E017
:107EE00062D089930C17E1F7F0E0CF16F0E7DF06D8
:107EF00018F0F601B7BEE89568D007B600FCFDCFD4
:107F0000A601A0E0B1E02C9130E011968C91119780
:107F100090E0982F8827822B932B1296FA010C0160
:107F200087BEE89511244E5F5F4FF1E0A038BF0790
:107F300051F7F601A7BEE89507B600FCFDCF97BE46
:107F4000E89526C08437B1F42ED02DD0F82E2BD052
:107F50003CD0F601EF2C8F010F5F1F4F84911BD097
:107F6000EA94F801C1F70894C11CD11CFA94CF0C13
:107F7000D11C0EC0853739F428D08EE10CD085E9AC
:107F80000AD08FE07ACF813511F488E018D01DD067
:107F900080E101D065CF982F8091C00085FFFCCF94
:107FA0009093C60008958091C00087FFFCCF809118
:107FB000C00084FD01C0A8958091C6000895E0E648
:107FC000F0E098E1908380830895EDDF803219F02E
:107FD00088E0F5DFFFCF84E1DECF1F93182FE3DFCA
:107FE0001150E9F7F2DF1F91089580E0E8DFEE27F6
:047FF000FF270994CA
:027FFE00040479
:00000001FF
